{
	"AddfiveStorage.sol": {
		"AddfiveStorage": {
			"abi": [
				{
					"inputs": [
						{
							"internalType": "uint256",
							"name": "num",
							"type": "uint256"
						},
						{
							"internalType": "string",
							"name": "n",
							"type": "string"
						}
					],
					"name": "Personel",
					"outputs": [],
					"stateMutability": "nonpayable",
					"type": "function"
				},
				{
					"inputs": [
						{
							"internalType": "uint256",
							"name": "",
							"type": "uint256"
						}
					],
					"name": "dict",
					"outputs": [
						{
							"internalType": "string",
							"name": "",
							"type": "string"
						}
					],
					"stateMutability": "view",
					"type": "function"
				},
				{
					"inputs": [],
					"name": "favnum",
					"outputs": [
						{
							"internalType": "uint256",
							"name": "",
							"type": "uint256"
						}
					],
					"stateMutability": "view",
					"type": "function"
				},
				{
					"inputs": [
						{
							"internalType": "uint256",
							"name": "",
							"type": "uint256"
						}
					],
					"name": "ngakootam",
					"outputs": [
						{
							"internalType": "uint256",
							"name": "favn",
							"type": "uint256"
						},
						{
							"internalType": "string",
							"name": "name",
							"type": "string"
						}
					],
					"stateMutability": "view",
					"type": "function"
				},
				{
					"inputs": [],
					"name": "nigga1",
					"outputs": [
						{
							"internalType": "uint256",
							"name": "favn",
							"type": "uint256"
						},
						{
							"internalType": "string",
							"name": "name",
							"type": "string"
						}
					],
					"stateMutability": "view",
					"type": "function"
				},
				{
					"inputs": [],
					"name": "retrieve",
					"outputs": [
						{
							"internalType": "uint256",
							"name": "",
							"type": "uint256"
						}
					],
					"stateMutability": "view",
					"type": "function"
				},
				{
					"inputs": [
						{
							"internalType": "uint256",
							"name": "_favnum",
							"type": "uint256"
						}
					],
					"name": "store",
					"outputs": [],
					"stateMutability": "nonpayable",
					"type": "function"
				}
			],
			"devdoc": {
				"kind": "dev",
				"methods": {},
				"version": 1
			},
			"evm": {
				"assembly": "    /* \"AddfiveStorage.sol\":113:244  contract AddfiveStorage is SimpleStorage{... */\n  mstore(0x40, 0x80)\n    /* \"SimpleStorage.sol\":110:112  88 */\n  0x58\n    /* \"SimpleStorage.sol\":88:112  uint256 public favnum=88 */\n  0x00\n  sstore\n    /* \"SimpleStorage.sol\":255:272  Person(7,\"THALA\") */\n  mload(0x40)\n  dup1\n  0x40\n  add\n  0x40\n  mstore\n  dup1\n    /* \"SimpleStorage.sol\":262:263  7 */\n  0x07\n    /* \"SimpleStorage.sol\":255:272  Person(7,\"THALA\") */\n  dup2\n  mstore\n  0x20\n  add\n  mload(0x40)\n  dup1\n  0x40\n  add\n  0x40\n  mstore\n  dup1\n  0x05\n  dup2\n  mstore\n  0x20\n  add\n  0x5448414c41000000000000000000000000000000000000000000000000000000\n  dup2\n  mstore\n  pop\n  dup2\n  mstore\n  pop\n    /* \"SimpleStorage.sol\":232:272  Person public nigga1 = Person(7,\"THALA\") */\n  0x01\n  0x00\n  dup3\n  add\n  mload\n  dup2\n  0x00\n  add\n  sstore\n  0x20\n  dup3\n  add\n  mload\n  dup2\n  0x01\n  add\n  swap1\n  dup2\n  tag_1\n  swap2\n  swap1\n  tag_2\n  jump\t// in\ntag_1:\n  pop\n  pop\n  pop\n    /* \"AddfiveStorage.sol\":113:244  contract AddfiveStorage is SimpleStorage{... */\n  callvalue\n  dup1\n  iszero\n  tag_3\n  jumpi\n  0x00\n  dup1\n  revert\ntag_3:\n  pop\n  jump(tag_4)\n    /* \"#utility.yul\":7:106   */\ntag_5:\n    /* \"#utility.yul\":59:65   */\n  0x00\n    /* \"#utility.yul\":93:98   */\n  dup2\n    /* \"#utility.yul\":87:99   */\n  mload\n    /* \"#utility.yul\":77:99   */\n  swap1\n  pop\n    /* \"#utility.yul\":7:106   */\n  swap2\n  swap1\n  pop\n  jump\t// out\n    /* \"#utility.yul\":112:292   */\ntag_6:\n    /* \"#utility.yul\":160:237   */\n  0x4e487b7100000000000000000000000000000000000000000000000000000000\n    /* \"#utility.yul\":157:158   */\n  0x00\n    /* \"#utility.yul\":150:238   */\n  mstore\n    /* \"#utility.yul\":257:261   */\n  0x41\n    /* \"#utility.yul\":254:255   */\n  0x04\n    /* \"#utility.yul\":247:262   */\n  mstore\n    /* \"#utility.yul\":281:285   */\n  0x24\n    /* \"#utility.yul\":278:279   */\n  0x00\n    /* \"#utility.yul\":271:286   */\n  revert\n    /* \"#utility.yul\":298:478   */\ntag_7:\n    /* \"#utility.yul\":346:423   */\n  0x4e487b7100000000000000000000000000000000000000000000000000000000\n    /* \"#utility.yul\":343:344   */\n  0x00\n    /* \"#utility.yul\":336:424   */\n  mstore\n    /* \"#utility.yul\":443:447   */\n  0x22\n    /* \"#utility.yul\":440:441   */\n  0x04\n    /* \"#utility.yul\":433:448   */\n  mstore\n    /* \"#utility.yul\":467:471   */\n  0x24\n    /* \"#utility.yul\":464:465   */\n  0x00\n    /* \"#utility.yul\":457:472   */\n  revert\n    /* \"#utility.yul\":484:804   */\ntag_8:\n    /* \"#utility.yul\":528:534   */\n  0x00\n    /* \"#utility.yul\":565:566   */\n  0x02\n    /* \"#utility.yul\":559:563   */\n  dup3\n    /* \"#utility.yul\":555:567   */\n  div\n    /* \"#utility.yul\":545:567   */\n  swap1\n  pop\n    /* \"#utility.yul\":612:613   */\n  0x01\n    /* \"#utility.yul\":606:610   */\n  dup3\n    /* \"#utility.yul\":602:614   */\n  and\n    /* \"#utility.yul\":633:651   */\n  dup1\n    /* \"#utility.yul\":623:704   */\n  tag_30\n  jumpi\n    /* \"#utility.yul\":689:693   */\n  0x7f\n    /* \"#utility.yul\":681:687   */\n  dup3\n    /* \"#utility.yul\":677:694   */\n  and\n    /* \"#utility.yul\":667:694   */\n  swap2\n  pop\n    /* \"#utility.yul\":623:704   */\ntag_30:\n    /* \"#utility.yul\":751:753   */\n  0x20\n    /* \"#utility.yul\":743:749   */\n  dup3\n    /* \"#utility.yul\":740:754   */\n  lt\n    /* \"#utility.yul\":720:738   */\n  dup2\n    /* \"#utility.yul\":717:755   */\n  sub\n    /* \"#utility.yul\":714:798   */\n  tag_31\n  jumpi\n    /* \"#utility.yul\":770:788   */\n  tag_32\n  tag_7\n  jump\t// in\ntag_32:\n    /* \"#utility.yul\":714:798   */\ntag_31:\n    /* \"#utility.yul\":535:804   */\n  pop\n    /* \"#utility.yul\":484:804   */\n  swap2\n  swap1\n  pop\n  jump\t// out\n    /* \"#utility.yul\":810:951   */\ntag_9:\n    /* \"#utility.yul\":859:863   */\n  0x00\n    /* \"#utility.yul\":882:885   */\n  dup2\n    /* \"#utility.yul\":874:885   */\n  swap1\n  pop\n    /* \"#utility.yul\":905:908   */\n  dup2\n    /* \"#utility.yul\":902:903   */\n  0x00\n    /* \"#utility.yul\":895:909   */\n  mstore\n    /* \"#utility.yul\":939:943   */\n  0x20\n    /* \"#utility.yul\":936:937   */\n  0x00\n    /* \"#utility.yul\":926:944   */\n  keccak256\n    /* \"#utility.yul\":918:944   */\n  swap1\n  pop\n    /* \"#utility.yul\":810:951   */\n  swap2\n  swap1\n  pop\n  jump\t// out\n    /* \"#utility.yul\":957:1050   */\ntag_10:\n    /* \"#utility.yul\":994:1000   */\n  0x00\n    /* \"#utility.yul\":1041:1043   */\n  0x20\n    /* \"#utility.yul\":1036:1038   */\n  0x1f\n    /* \"#utility.yul\":1029:1034   */\n  dup4\n    /* \"#utility.yul\":1025:1039   */\n  add\n    /* \"#utility.yul\":1021:1044   */\n  div\n    /* \"#utility.yul\":1011:1044   */\n  swap1\n  pop\n    /* \"#utility.yul\":957:1050   */\n  swap2\n  swap1\n  pop\n  jump\t// out\n    /* \"#utility.yul\":1056:1163   */\ntag_11:\n    /* \"#utility.yul\":1100:1108   */\n  0x00\n    /* \"#utility.yul\":1150:1155   */\n  dup3\n    /* \"#utility.yul\":1144:1148   */\n  dup3\n    /* \"#utility.yul\":1140:1156   */\n  shl\n    /* \"#utility.yul\":1119:1156   */\n  swap1\n  pop\n    /* \"#utility.yul\":1056:1163   */\n  swap3\n  swap2\n  pop\n  pop\n  jump\t// out\n    /* \"#utility.yul\":1169:1562   */\ntag_12:\n    /* \"#utility.yul\":1238:1244   */\n  0x00\n    /* \"#utility.yul\":1288:1289   */\n  0x08\n    /* \"#utility.yul\":1276:1286   */\n  dup4\n    /* \"#utility.yul\":1272:1290   */\n  mul\n    /* \"#utility.yul\":1311:1408   */\n  tag_37\n    /* \"#utility.yul\":1341:1407   */\n  0xffffffffffffffffffffffffffffffffffffffffffffffffffffffffffffffff\n    /* \"#utility.yul\":1330:1339   */\n  dup3\n    /* \"#utility.yul\":1311:1408   */\n  tag_11\n  jump\t// in\ntag_37:\n    /* \"#utility.yul\":1429:1468   */\n  tag_38\n    /* \"#utility.yul\":1459:1467   */\n  dup7\n    /* \"#utility.yul\":1448:1457   */\n  dup4\n    /* \"#utility.yul\":1429:1468   */\n  tag_11\n  jump\t// in\ntag_38:\n    /* \"#utility.yul\":1417:1468   */\n  swap6\n  pop\n    /* \"#utility.yul\":1501:1505   */\n  dup1\n    /* \"#utility.yul\":1497:1506   */\n  not\n    /* \"#utility.yul\":1490:1495   */\n  dup5\n    /* \"#utility.yul\":1486:1507   */\n  and\n    /* \"#utility.yul\":1477:1507   */\n  swap4\n  pop\n    /* \"#utility.yul\":1550:1554   */\n  dup1\n    /* \"#utility.yul\":1540:1548   */\n  dup7\n    /* \"#utility.yul\":1536:1555   */\n  and\n    /* \"#utility.yul\":1529:1534   */\n  dup5\n    /* \"#utility.yul\":1526:1556   */\n  or\n    /* \"#utility.yul\":1516:1556   */\n  swap3\n  pop\n    /* \"#utility.yul\":1245:1562   */\n  pop\n  pop\n    /* \"#utility.yul\":1169:1562   */\n  swap4\n  swap3\n  pop\n  pop\n  pop\n  jump\t// out\n    /* \"#utility.yul\":1568:1645   */\ntag_13:\n    /* \"#utility.yul\":1605:1612   */\n  0x00\n    /* \"#utility.yul\":1634:1639   */\n  dup2\n    /* \"#utility.yul\":1623:1639   */\n  swap1\n  pop\n    /* \"#utility.yul\":1568:1645   */\n  swap2\n  swap1\n  pop\n  jump\t// out\n    /* \"#utility.yul\":1651:1711   */\ntag_14:\n    /* \"#utility.yul\":1679:1682   */\n  0x00\n    /* \"#utility.yul\":1700:1705   */\n  dup2\n    /* \"#utility.yul\":1693:1705   */\n  swap1\n  pop\n    /* \"#utility.yul\":1651:1711   */\n  swap2\n  swap1\n  pop\n  jump\t// out\n    /* \"#utility.yul\":1717:1859   */\ntag_15:\n    /* \"#utility.yul\":1767:1776   */\n  0x00\n    /* \"#utility.yul\":1800:1853   */\n  tag_42\n    /* \"#utility.yul\":1818:1852   */\n  tag_43\n    /* \"#utility.yul\":1827:1851   */\n  tag_44\n    /* \"#utility.yul\":1845:1850   */\n  dup5\n    /* \"#utility.yul\":1827:1851   */\n  tag_13\n  jump\t// in\ntag_44:\n    /* \"#utility.yul\":1818:1852   */\n  tag_14\n  jump\t// in\ntag_43:\n    /* \"#utility.yul\":1800:1853   */\n  tag_13\n  jump\t// in\ntag_42:\n    /* \"#utility.yul\":1787:1853   */\n  swap1\n  pop\n    /* \"#utility.yul\":1717:1859   */\n  swap2\n  swap1\n  pop\n  jump\t// out\n    /* \"#utility.yul\":1865:1940   */\ntag_16:\n    /* \"#utility.yul\":1908:1911   */\n  0x00\n    /* \"#utility.yul\":1929:1934   */\n  dup2\n    /* \"#utility.yul\":1922:1934   */\n  swap1\n  pop\n    /* \"#utility.yul\":1865:1940   */\n  swap2\n  swap1\n  pop\n  jump\t// out\n    /* \"#utility.yul\":1946:2215   */\ntag_17:\n    /* \"#utility.yul\":2056:2095   */\n  tag_47\n    /* \"#utility.yul\":2087:2094   */\n  dup4\n    /* \"#utility.yul\":2056:2095   */\n  tag_15\n  jump\t// in\ntag_47:\n    /* \"#utility.yul\":2117:2208   */\n  tag_48\n    /* \"#utility.yul\":2166:2207   */\n  tag_49\n    /* \"#utility.yul\":2190:2206   */\n  dup3\n    /* \"#utility.yul\":2166:2207   */\n  tag_16\n  jump\t// in\ntag_49:\n    /* \"#utility.yul\":2158:2164   */\n  dup5\n    /* \"#utility.yul\":2151:2155   */\n  dup5\n    /* \"#utility.yul\":2145:2156   */\n  sload\n    /* \"#utility.yul\":2117:2208   */\n  tag_12\n  jump\t// in\ntag_48:\n    /* \"#utility.yul\":2111:2115   */\n  dup3\n    /* \"#utility.yul\":2104:2209   */\n  sstore\n    /* \"#utility.yul\":2022:2215   */\n  pop\n    /* \"#utility.yul\":1946:2215   */\n  pop\n  pop\n  pop\n  jump\t// out\n    /* \"#utility.yul\":2221:2294   */\ntag_18:\n    /* \"#utility.yul\":2266:2269   */\n  0x00\n    /* \"#utility.yul\":2221:2294   */\n  swap1\n  jump\t// out\n    /* \"#utility.yul\":2300:2489   */\ntag_19:\n    /* \"#utility.yul\":2377:2409   */\n  tag_52\n  tag_18\n  jump\t// in\ntag_52:\n    /* \"#utility.yul\":2418:2483   */\n  tag_53\n    /* \"#utility.yul\":2476:2482   */\n  dup2\n    /* \"#utility.yul\":2468:2474   */\n  dup5\n    /* \"#utility.yul\":2462:2466   */\n  dup5\n    /* \"#utility.yul\":2418:2483   */\n  tag_17\n  jump\t// in\ntag_53:\n    /* \"#utility.yul\":2353:2489   */\n  pop\n    /* \"#utility.yul\":2300:2489   */\n  pop\n  pop\n  jump\t// out\n    /* \"#utility.yul\":2495:2681   */\ntag_20:\n    /* \"#utility.yul\":2555:2675   */\ntag_55:\n    /* \"#utility.yul\":2572:2575   */\n  dup2\n    /* \"#utility.yul\":2565:2570   */\n  dup2\n    /* \"#utility.yul\":2562:2576   */\n  lt\n    /* \"#utility.yul\":2555:2675   */\n  iszero\n  tag_57\n  jumpi\n    /* \"#utility.yul\":2626:2665   */\n  tag_58\n    /* \"#utility.yul\":2663:2664   */\n  0x00\n    /* \"#utility.yul\":2656:2661   */\n  dup3\n    /* \"#utility.yul\":2626:2665   */\n  tag_19\n  jump\t// in\ntag_58:\n    /* \"#utility.yul\":2599:2600   */\n  0x01\n    /* \"#utility.yul\":2592:2597   */\n  dup2\n    /* \"#utility.yul\":2588:2601   */\n  add\n    /* \"#utility.yul\":2579:2601   */\n  swap1\n  pop\n    /* \"#utility.yul\":2555:2675   */\n  jump(tag_55)\ntag_57:\n    /* \"#utility.yul\":2495:2681   */\n  pop\n  pop\n  jump\t// out\n    /* \"#utility.yul\":2687:3230   */\ntag_21:\n    /* \"#utility.yul\":2788:2790   */\n  0x1f\n    /* \"#utility.yul\":2783:2786   */\n  dup3\n    /* \"#utility.yul\":2780:2791   */\n  gt\n    /* \"#utility.yul\":2777:3223   */\n  iszero\n  tag_60\n  jumpi\n    /* \"#utility.yul\":2822:2860   */\n  tag_61\n    /* \"#utility.yul\":2854:2859   */\n  dup2\n    /* \"#utility.yul\":2822:2860   */\n  tag_9\n  jump\t// in\ntag_61:\n    /* \"#utility.yul\":2906:2935   */\n  tag_62\n    /* \"#utility.yul\":2924:2934   */\n  dup5\n    /* \"#utility.yul\":2906:2935   */\n  tag_10\n  jump\t// in\ntag_62:\n    /* \"#utility.yul\":2896:2904   */\n  dup2\n    /* \"#utility.yul\":2892:2936   */\n  add\n    /* \"#utility.yul\":3089:3091   */\n  0x20\n    /* \"#utility.yul\":3077:3087   */\n  dup6\n    /* \"#utility.yul\":3074:3092   */\n  lt\n    /* \"#utility.yul\":3071:3120   */\n  iszero\n  tag_63\n  jumpi\n    /* \"#utility.yul\":3110:3118   */\n  dup2\n    /* \"#utility.yul\":3095:3118   */\n  swap1\n  pop\n    /* \"#utility.yul\":3071:3120   */\ntag_63:\n    /* \"#utility.yul\":3133:3213   */\n  tag_64\n    /* \"#utility.yul\":3189:3211   */\n  tag_65\n    /* \"#utility.yul\":3207:3210   */\n  dup6\n    /* \"#utility.yul\":3189:3211   */\n  tag_10\n  jump\t// in\ntag_65:\n    /* \"#utility.yul\":3179:3187   */\n  dup4\n    /* \"#utility.yul\":3175:3212   */\n  add\n    /* \"#utility.yul\":3162:3173   */\n  dup3\n    /* \"#utility.yul\":3133:3213   */\n  tag_20\n  jump\t// in\ntag_64:\n    /* \"#utility.yul\":2792:3223   */\n  pop\n  pop\n    /* \"#utility.yul\":2777:3223   */\ntag_60:\n    /* \"#utility.yul\":2687:3230   */\n  pop\n  pop\n  pop\n  jump\t// out\n    /* \"#utility.yul\":3236:3353   */\ntag_22:\n    /* \"#utility.yul\":3290:3298   */\n  0x00\n    /* \"#utility.yul\":3340:3345   */\n  dup3\n    /* \"#utility.yul\":3334:3338   */\n  dup3\n    /* \"#utility.yul\":3330:3346   */\n  shr\n    /* \"#utility.yul\":3309:3346   */\n  swap1\n  pop\n    /* \"#utility.yul\":3236:3353   */\n  swap3\n  swap2\n  pop\n  pop\n  jump\t// out\n    /* \"#utility.yul\":3359:3528   */\ntag_23:\n    /* \"#utility.yul\":3403:3409   */\n  0x00\n    /* \"#utility.yul\":3436:3487   */\n  tag_68\n    /* \"#utility.yul\":3484:3485   */\n  0x00\n    /* \"#utility.yul\":3480:3486   */\n  not\n    /* \"#utility.yul\":3472:3477   */\n  dup5\n    /* \"#utility.yul\":3469:3470   */\n  0x08\n    /* \"#utility.yul\":3465:3478   */\n  mul\n    /* \"#utility.yul\":3436:3487   */\n  tag_22\n  jump\t// in\ntag_68:\n    /* \"#utility.yul\":3432:3488   */\n  not\n    /* \"#utility.yul\":3517:3521   */\n  dup1\n    /* \"#utility.yul\":3511:3515   */\n  dup4\n    /* \"#utility.yul\":3507:3522   */\n  and\n    /* \"#utility.yul\":3497:3522   */\n  swap2\n  pop\n    /* \"#utility.yul\":3410:3528   */\n  pop\n    /* \"#utility.yul\":3359:3528   */\n  swap3\n  swap2\n  pop\n  pop\n  jump\t// out\n    /* \"#utility.yul\":3533:3828   */\ntag_24:\n    /* \"#utility.yul\":3609:3613   */\n  0x00\n    /* \"#utility.yul\":3755:3784   */\n  tag_70\n    /* \"#utility.yul\":3780:3783   */\n  dup4\n    /* \"#utility.yul\":3774:3778   */\n  dup4\n    /* \"#utility.yul\":3755:3784   */\n  tag_23\n  jump\t// in\ntag_70:\n    /* \"#utility.yul\":3747:3784   */\n  swap2\n  pop\n    /* \"#utility.yul\":3817:3820   */\n  dup3\n    /* \"#utility.yul\":3814:3815   */\n  0x02\n    /* \"#utility.yul\":3810:3821   */\n  mul\n    /* \"#utility.yul\":3804:3808   */\n  dup3\n    /* \"#utility.yul\":3801:3822   */\n  or\n    /* \"#utility.yul\":3793:3822   */\n  swap1\n  pop\n    /* \"#utility.yul\":3533:3828   */\n  swap3\n  swap2\n  pop\n  pop\n  jump\t// out\n    /* \"#utility.yul\":3833:5228   */\ntag_2:\n    /* \"#utility.yul\":3950:3987   */\n  tag_72\n    /* \"#utility.yul\":3983:3986   */\n  dup3\n    /* \"#utility.yul\":3950:3987   */\n  tag_5\n  jump\t// in\ntag_72:\n    /* \"#utility.yul\":4052:4070   */\n  0xffffffffffffffff\n    /* \"#utility.yul\":4044:4050   */\n  dup2\n    /* \"#utility.yul\":4041:4071   */\n  gt\n    /* \"#utility.yul\":4038:4094   */\n  iszero\n  tag_73\n  jumpi\n    /* \"#utility.yul\":4074:4092   */\n  tag_74\n  tag_6\n  jump\t// in\ntag_74:\n    /* \"#utility.yul\":4038:4094   */\ntag_73:\n    /* \"#utility.yul\":4118:4156   */\n  tag_75\n    /* \"#utility.yul\":4150:4154   */\n  dup3\n    /* \"#utility.yul\":4144:4155   */\n  sload\n    /* \"#utility.yul\":4118:4156   */\n  tag_8\n  jump\t// in\ntag_75:\n    /* \"#utility.yul\":4203:4270   */\n  tag_76\n    /* \"#utility.yul\":4263:4269   */\n  dup3\n    /* \"#utility.yul\":4255:4261   */\n  dup3\n    /* \"#utility.yul\":4249:4253   */\n  dup6\n    /* \"#utility.yul\":4203:4270   */\n  tag_21\n  jump\t// in\ntag_76:\n    /* \"#utility.yul\":4297:4298   */\n  0x00\n    /* \"#utility.yul\":4321:4325   */\n  0x20\n    /* \"#utility.yul\":4308:4325   */\n  swap1\n  pop\n    /* \"#utility.yul\":4353:4355   */\n  0x1f\n    /* \"#utility.yul\":4345:4351   */\n  dup4\n    /* \"#utility.yul\":4342:4356   */\n  gt\n    /* \"#utility.yul\":4370:4371   */\n  0x01\n    /* \"#utility.yul\":4365:4983   */\n  dup2\n  eq\n  tag_78\n  jumpi\n    /* \"#utility.yul\":5027:5028   */\n  0x00\n    /* \"#utility.yul\":5044:5050   */\n  dup5\n    /* \"#utility.yul\":5041:5118   */\n  iszero\n  tag_79\n  jumpi\n    /* \"#utility.yul\":5093:5102   */\n  dup3\n    /* \"#utility.yul\":5088:5091   */\n  dup8\n    /* \"#utility.yul\":5084:5103   */\n  add\n    /* \"#utility.yul\":5078:5104   */\n  mload\n    /* \"#utility.yul\":5069:5104   */\n  swap1\n  pop\n    /* \"#utility.yul\":5041:5118   */\ntag_79:\n    /* \"#utility.yul\":5144:5211   */\n  tag_80\n    /* \"#utility.yul\":5204:5210   */\n  dup6\n    /* \"#utility.yul\":5197:5202   */\n  dup3\n    /* \"#utility.yul\":5144:5211   */\n  tag_24\n  jump\t// in\ntag_80:\n    /* \"#utility.yul\":5138:5142   */\n  dup7\n    /* \"#utility.yul\":5131:5212   */\n  sstore\n    /* \"#utility.yul\":5000:5222   */\n  pop\n    /* \"#utility.yul\":4335:5222   */\n  jump(tag_77)\n    /* \"#utility.yul\":4365:4983   */\ntag_78:\n    /* \"#utility.yul\":4417:4421   */\n  0x1f\n    /* \"#utility.yul\":4413:4422   */\n  not\n    /* \"#utility.yul\":4405:4411   */\n  dup5\n    /* \"#utility.yul\":4401:4423   */\n  and\n    /* \"#utility.yul\":4451:4488   */\n  tag_81\n    /* \"#utility.yul\":4483:4487   */\n  dup7\n    /* \"#utility.yul\":4451:4488   */\n  tag_9\n  jump\t// in\ntag_81:\n    /* \"#utility.yul\":4510:4511   */\n  0x00\n    /* \"#utility.yul\":4524:4732   */\ntag_82:\n    /* \"#utility.yul\":4538:4545   */\n  dup3\n    /* \"#utility.yul\":4535:4536   */\n  dup2\n    /* \"#utility.yul\":4532:4546   */\n  lt\n    /* \"#utility.yul\":4524:4732   */\n  iszero\n  tag_84\n  jumpi\n    /* \"#utility.yul\":4617:4626   */\n  dup5\n    /* \"#utility.yul\":4612:4615   */\n  dup10\n    /* \"#utility.yul\":4608:4627   */\n  add\n    /* \"#utility.yul\":4602:4628   */\n  mload\n    /* \"#utility.yul\":4594:4600   */\n  dup3\n    /* \"#utility.yul\":4587:4629   */\n  sstore\n    /* \"#utility.yul\":4668:4669   */\n  0x01\n    /* \"#utility.yul\":4660:4666   */\n  dup3\n    /* \"#utility.yul\":4656:4670   */\n  add\n    /* \"#utility.yul\":4646:4670   */\n  swap2\n  pop\n    /* \"#utility.yul\":4715:4717   */\n  0x20\n    /* \"#utility.yul\":4704:4713   */\n  dup6\n    /* \"#utility.yul\":4700:4718   */\n  add\n    /* \"#utility.yul\":4687:4718   */\n  swap5\n  pop\n    /* \"#utility.yul\":4561:4565   */\n  0x20\n    /* \"#utility.yul\":4558:4559   */\n  dup2\n    /* \"#utility.yul\":4554:4566   */\n  add\n    /* \"#utility.yul\":4549:4566   */\n  swap1\n  pop\n    /* \"#utility.yul\":4524:4732   */\n  jump(tag_82)\ntag_84:\n    /* \"#utility.yul\":4760:4766   */\n  dup7\n    /* \"#utility.yul\":4751:4758   */\n  dup4\n    /* \"#utility.yul\":4748:4767   */\n  lt\n    /* \"#utility.yul\":4745:4924   */\n  iszero\n  tag_85\n  jumpi\n    /* \"#utility.yul\":4818:4827   */\n  dup5\n    /* \"#utility.yul\":4813:4816   */\n  dup10\n    /* \"#utility.yul\":4809:4828   */\n  add\n    /* \"#utility.yul\":4803:4829   */\n  mload\n    /* \"#utility.yul\":4861:4909   */\n  tag_86\n    /* \"#utility.yul\":4903:4907   */\n  0x1f\n    /* \"#utility.yul\":4895:4901   */\n  dup10\n    /* \"#utility.yul\":4891:4908   */\n  and\n    /* \"#utility.yul\":4880:4889   */\n  dup3\n    /* \"#utility.yul\":4861:4909   */\n  tag_23\n  jump\t// in\ntag_86:\n    /* \"#utility.yul\":4853:4859   */\n  dup4\n    /* \"#utility.yul\":4846:4910   */\n  sstore\n    /* \"#utility.yul\":4768:4924   */\n  pop\n    /* \"#utility.yul\":4745:4924   */\ntag_85:\n    /* \"#utility.yul\":4970:4971   */\n  0x01\n    /* \"#utility.yul\":4966:4967   */\n  0x02\n    /* \"#utility.yul\":4958:4964   */\n  dup9\n    /* \"#utility.yul\":4954:4968   */\n  mul\n    /* \"#utility.yul\":4950:4972   */\n  add\n    /* \"#utility.yul\":4944:4948   */\n  dup9\n    /* \"#utility.yul\":4937:4973   */\n  sstore\n    /* \"#utility.yul\":4372:4983   */\n  pop\n  pop\n  pop\n    /* \"#utility.yul\":4335:5222   */\ntag_77:\n  pop\n    /* \"#utility.yul\":3925:5228   */\n  pop\n  pop\n  pop\n    /* \"#utility.yul\":3833:5228   */\n  pop\n  pop\n  jump\t// out\n    /* \"AddfiveStorage.sol\":113:244  contract AddfiveStorage is SimpleStorage{... */\ntag_4:\n  dataSize(sub_0)\n  dup1\n  dataOffset(sub_0)\n  0x00\n  codecopy\n  0x00\n  return\nstop\n\nsub_0: assembly {\n        /* \"AddfiveStorage.sol\":113:244  contract AddfiveStorage is SimpleStorage{... */\n      mstore(0x40, 0x80)\n      callvalue\n      dup1\n      iszero\n      tag_1\n      jumpi\n      0x00\n      dup1\n      revert\n    tag_1:\n      pop\n      jumpi(tag_2, lt(calldatasize, 0x04))\n      shr(0xe0, calldataload(0x00))\n      dup1\n      0x6057361d\n      gt\n      tag_10\n      jumpi\n      dup1\n      0x6057361d\n      eq\n      tag_6\n      jumpi\n      dup1\n      0x7911ff88\n      eq\n      tag_7\n      jumpi\n      dup1\n      0x89d27da2\n      eq\n      tag_8\n      jumpi\n      dup1\n      0xaffc277b\n      eq\n      tag_9\n      jumpi\n      jump(tag_2)\n    tag_10:\n      dup1\n      0x092770dc\n      eq\n      tag_3\n      jumpi\n      dup1\n      0x19908de0\n      eq\n      tag_4\n      jumpi\n      dup1\n      0x2e64cec1\n      eq\n      tag_5\n      jumpi\n    tag_2:\n      0x00\n      dup1\n      revert\n        /* \"SimpleStorage.sol\":319:357  mapping(uint256 => string) public dict */\n    tag_3:\n      tag_11\n      0x04\n      dup1\n      calldatasize\n      sub\n      dup2\n      add\n      swap1\n      tag_12\n      swap2\n      swap1\n      tag_13\n      jump\t// in\n    tag_12:\n      tag_14\n      jump\t// in\n    tag_11:\n      mload(0x40)\n      tag_15\n      swap2\n      swap1\n      tag_16\n      jump\t// in\n    tag_15:\n      mload(0x40)\n      dup1\n      swap2\n      sub\n      swap1\n      return\n        /* \"SimpleStorage.sol\":88:112  uint256 public favnum=88 */\n    tag_4:\n      tag_17\n      tag_18\n      jump\t// in\n    tag_17:\n      mload(0x40)\n      tag_19\n      swap2\n      swap1\n      tag_20\n      jump\t// in\n    tag_19:\n      mload(0x40)\n      dup1\n      swap2\n      sub\n      swap1\n      return\n        /* \"SimpleStorage.sol\":453:534  function retrieve() public view returns (uint256){... */\n    tag_5:\n      tag_21\n      tag_22\n      jump\t// in\n    tag_21:\n      mload(0x40)\n      tag_23\n      swap2\n      swap1\n      tag_20\n      jump\t// in\n    tag_23:\n      mload(0x40)\n      dup1\n      swap2\n      sub\n      swap1\n      return\n        /* \"AddfiveStorage.sol\":160:240  function store(uint _favnum) public override {... */\n    tag_6:\n      tag_24\n      0x04\n      dup1\n      calldatasize\n      sub\n      dup2\n      add\n      swap1\n      tag_25\n      swap2\n      swap1\n      tag_13\n      jump\t// in\n    tag_25:\n      tag_26\n      jump\t// in\n    tag_24:\n      stop\n        /* \"SimpleStorage.sol\":279:304  Person[] public ngakootam */\n    tag_7:\n      tag_27\n      0x04\n      dup1\n      calldatasize\n      sub\n      dup2\n      add\n      swap1\n      tag_28\n      swap2\n      swap1\n      tag_13\n      jump\t// in\n    tag_28:\n      tag_29\n      jump\t// in\n    tag_27:\n      mload(0x40)\n      tag_30\n      swap3\n      swap2\n      swap1\n      tag_31\n      jump\t// in\n    tag_30:\n      mload(0x40)\n      dup1\n      swap2\n      sub\n      swap1\n      return\n        /* \"SimpleStorage.sol\":542:665  function Personel(uint256 num,string memory n) public{... */\n    tag_8:\n      tag_32\n      0x04\n      dup1\n      calldatasize\n      sub\n      dup2\n      add\n      swap1\n      tag_33\n      swap2\n      swap1\n      tag_34\n      jump\t// in\n    tag_33:\n      tag_35\n      jump\t// in\n    tag_32:\n      stop\n        /* \"SimpleStorage.sol\":232:272  Person public nigga1 = Person(7,\"THALA\") */\n    tag_9:\n      tag_36\n      tag_37\n      jump\t// in\n    tag_36:\n      mload(0x40)\n      tag_38\n      swap3\n      swap2\n      swap1\n      tag_31\n      jump\t// in\n    tag_38:\n      mload(0x40)\n      dup1\n      swap2\n      sub\n      swap1\n      return\n        /* \"SimpleStorage.sol\":319:357  mapping(uint256 => string) public dict */\n    tag_14:\n      mstore(0x20, 0x04)\n      dup1\n      0x00\n      mstore\n      keccak256(0x00, 0x40)\n      0x00\n      swap2\n      pop\n      swap1\n      pop\n      dup1\n      sload\n      tag_39\n      swap1\n      tag_40\n      jump\t// in\n    tag_39:\n      dup1\n      0x1f\n      add\n      0x20\n      dup1\n      swap2\n      div\n      mul\n      0x20\n      add\n      mload(0x40)\n      swap1\n      dup2\n      add\n      0x40\n      mstore\n      dup1\n      swap3\n      swap2\n      swap1\n      dup2\n      dup2\n      mstore\n      0x20\n      add\n      dup3\n      dup1\n      sload\n      tag_41\n      swap1\n      tag_40\n      jump\t// in\n    tag_41:\n      dup1\n      iszero\n      tag_42\n      jumpi\n      dup1\n      0x1f\n      lt\n      tag_43\n      jumpi\n      0x0100\n      dup1\n      dup4\n      sload\n      div\n      mul\n      dup4\n      mstore\n      swap2\n      0x20\n      add\n      swap2\n      jump(tag_42)\n    tag_43:\n      dup3\n      add\n      swap2\n      swap1\n      0x00\n      mstore\n      keccak256(0x00, 0x20)\n      swap1\n    tag_44:\n      dup2\n      sload\n      dup2\n      mstore\n      swap1\n      0x01\n      add\n      swap1\n      0x20\n      add\n      dup1\n      dup4\n      gt\n      tag_44\n      jumpi\n      dup3\n      swap1\n      sub\n      0x1f\n      and\n      dup3\n      add\n      swap2\n    tag_42:\n      pop\n      pop\n      pop\n      pop\n      pop\n      dup2\n      jump\t// out\n        /* \"SimpleStorage.sol\":88:112  uint256 public favnum=88 */\n    tag_18:\n      sload(0x00)\n      dup2\n      jump\t// out\n        /* \"SimpleStorage.sol\":453:534  function retrieve() public view returns (uint256){... */\n    tag_22:\n        /* \"SimpleStorage.sol\":494:501  uint256 */\n      0x00\n        /* \"SimpleStorage.sol\":520:526  favnum */\n      dup1\n      sload\n        /* \"SimpleStorage.sol\":513:526  return favnum */\n      swap1\n      pop\n        /* \"SimpleStorage.sol\":453:534  function retrieve() public view returns (uint256){... */\n      swap1\n      jump\t// out\n        /* \"AddfiveStorage.sol\":160:240  function store(uint _favnum) public override {... */\n    tag_26:\n        /* \"AddfiveStorage.sol\":231:232  5 */\n      0x05\n        /* \"AddfiveStorage.sol\":223:230  _favnum */\n      dup2\n        /* \"AddfiveStorage.sol\":223:232  _favnum+5 */\n      tag_47\n      swap2\n      swap1\n      tag_48\n      jump\t// in\n    tag_47:\n        /* \"AddfiveStorage.sol\":216:222  favnum */\n      0x00\n        /* \"AddfiveStorage.sol\":216:232  favnum=_favnum+5 */\n      dup2\n      swap1\n      sstore\n      pop\n        /* \"AddfiveStorage.sol\":160:240  function store(uint _favnum) public override {... */\n      pop\n      jump\t// out\n        /* \"SimpleStorage.sol\":279:304  Person[] public ngakootam */\n    tag_29:\n      0x03\n      dup2\n      dup2\n      sload\n      dup2\n      lt\n      tag_49\n      jumpi\n      0x00\n      dup1\n      revert\n    tag_49:\n      swap1\n      0x00\n      mstore\n      keccak256(0x00, 0x20)\n      swap1\n      0x02\n      mul\n      add\n      0x00\n      swap2\n      pop\n      swap1\n      pop\n      dup1\n      0x00\n      add\n      sload\n      swap1\n      dup1\n      0x01\n      add\n      dup1\n      sload\n      tag_51\n      swap1\n      tag_40\n      jump\t// in\n    tag_51:\n      dup1\n      0x1f\n      add\n      0x20\n      dup1\n      swap2\n      div\n      mul\n      0x20\n      add\n      mload(0x40)\n      swap1\n      dup2\n      add\n      0x40\n      mstore\n      dup1\n      swap3\n      swap2\n      swap1\n      dup2\n      dup2\n      mstore\n      0x20\n      add\n      dup3\n      dup1\n      sload\n      tag_52\n      swap1\n      tag_40\n      jump\t// in\n    tag_52:\n      dup1\n      iszero\n      tag_53\n      jumpi\n      dup1\n      0x1f\n      lt\n      tag_54\n      jumpi\n      0x0100\n      dup1\n      dup4\n      sload\n      div\n      mul\n      dup4\n      mstore\n      swap2\n      0x20\n      add\n      swap2\n      jump(tag_53)\n    tag_54:\n      dup3\n      add\n      swap2\n      swap1\n      0x00\n      mstore\n      keccak256(0x00, 0x20)\n      swap1\n    tag_55:\n      dup2\n      sload\n      dup2\n      mstore\n      swap1\n      0x01\n      add\n      swap1\n      0x20\n      add\n      dup1\n      dup4\n      gt\n      tag_55\n      jumpi\n      dup3\n      swap1\n      sub\n      0x1f\n      and\n      dup3\n      add\n      swap2\n    tag_53:\n      pop\n      pop\n      pop\n      pop\n      pop\n      swap1\n      pop\n      dup3\n      jump\t// out\n        /* \"SimpleStorage.sol\":542:665  function Personel(uint256 num,string memory n) public{... */\n    tag_35:\n        /* \"SimpleStorage.sol\":606:615  ngakootam */\n      0x03\n        /* \"SimpleStorage.sol\":621:634  Person(num,n) */\n      mload(0x40)\n      dup1\n      0x40\n      add\n      0x40\n      mstore\n      dup1\n        /* \"SimpleStorage.sol\":628:631  num */\n      dup5\n        /* \"SimpleStorage.sol\":621:634  Person(num,n) */\n      dup2\n      mstore\n      0x20\n      add\n        /* \"SimpleStorage.sol\":632:633  n */\n      dup4\n        /* \"SimpleStorage.sol\":621:634  Person(num,n) */\n      dup2\n      mstore\n      pop\n        /* \"SimpleStorage.sol\":606:635  ngakootam.push(Person(num,n)) */\n      swap1\n      dup1\n      0x01\n      dup2\n      sload\n      add\n      dup1\n      dup3\n      sstore\n      dup1\n      swap2\n      pop\n      pop\n      0x01\n      swap1\n      sub\n      swap1\n      0x00\n      mstore\n      keccak256(0x00, 0x20)\n      swap1\n      0x02\n      mul\n      add\n      0x00\n      swap1\n      swap2\n      swap1\n      swap2\n      swap1\n      swap2\n      pop\n      0x00\n      dup3\n      add\n      mload\n      dup2\n      0x00\n      add\n      sstore\n      0x20\n      dup3\n      add\n      mload\n      dup2\n      0x01\n      add\n      swap1\n      dup2\n      tag_58\n      swap2\n      swap1\n      tag_59\n      jump\t// in\n    tag_58:\n      pop\n      pop\n      pop\n        /* \"SimpleStorage.sol\":656:657  n */\n      dup1\n        /* \"SimpleStorage.sol\":646:650  dict */\n      0x04\n        /* \"SimpleStorage.sol\":646:655  dict[num] */\n      0x00\n        /* \"SimpleStorage.sol\":651:654  num */\n      dup5\n        /* \"SimpleStorage.sol\":646:655  dict[num] */\n      dup2\n      mstore\n      0x20\n      add\n      swap1\n      dup2\n      mstore\n      0x20\n      add\n      0x00\n      keccak256\n        /* \"SimpleStorage.sol\":646:657  dict[num]=n */\n      swap1\n      dup2\n      tag_60\n      swap2\n      swap1\n      tag_59\n      jump\t// in\n    tag_60:\n      pop\n        /* \"SimpleStorage.sol\":542:665  function Personel(uint256 num,string memory n) public{... */\n      pop\n      pop\n      jump\t// out\n        /* \"SimpleStorage.sol\":232:272  Person public nigga1 = Person(7,\"THALA\") */\n    tag_37:\n      0x01\n      dup1\n      0x00\n      add\n      sload\n      swap1\n      dup1\n      0x01\n      add\n      dup1\n      sload\n      tag_61\n      swap1\n      tag_40\n      jump\t// in\n    tag_61:\n      dup1\n      0x1f\n      add\n      0x20\n      dup1\n      swap2\n      div\n      mul\n      0x20\n      add\n      mload(0x40)\n      swap1\n      dup2\n      add\n      0x40\n      mstore\n      dup1\n      swap3\n      swap2\n      swap1\n      dup2\n      dup2\n      mstore\n      0x20\n      add\n      dup3\n      dup1\n      sload\n      tag_62\n      swap1\n      tag_40\n      jump\t// in\n    tag_62:\n      dup1\n      iszero\n      tag_63\n      jumpi\n      dup1\n      0x1f\n      lt\n      tag_64\n      jumpi\n      0x0100\n      dup1\n      dup4\n      sload\n      div\n      mul\n      dup4\n      mstore\n      swap2\n      0x20\n      add\n      swap2\n      jump(tag_63)\n    tag_64:\n      dup3\n      add\n      swap2\n      swap1\n      0x00\n      mstore\n      keccak256(0x00, 0x20)\n      swap1\n    tag_65:\n      dup2\n      sload\n      dup2\n      mstore\n      swap1\n      0x01\n      add\n      swap1\n      0x20\n      add\n      dup1\n      dup4\n      gt\n      tag_65\n      jumpi\n      dup3\n      swap1\n      sub\n      0x1f\n      and\n      dup3\n      add\n      swap2\n    tag_63:\n      pop\n      pop\n      pop\n      pop\n      pop\n      swap1\n      pop\n      dup3\n      jump\t// out\n        /* \"#utility.yul\":7:82   */\n    tag_66:\n        /* \"#utility.yul\":40:46   */\n      0x00\n        /* \"#utility.yul\":73:75   */\n      0x40\n        /* \"#utility.yul\":67:76   */\n      mload\n        /* \"#utility.yul\":57:76   */\n      swap1\n      pop\n        /* \"#utility.yul\":7:82   */\n      swap1\n      jump\t// out\n        /* \"#utility.yul\":88:205   */\n    tag_67:\n        /* \"#utility.yul\":197:198   */\n      0x00\n        /* \"#utility.yul\":194:195   */\n      dup1\n        /* \"#utility.yul\":187:199   */\n      revert\n        /* \"#utility.yul\":211:328   */\n    tag_68:\n        /* \"#utility.yul\":320:321   */\n      0x00\n        /* \"#utility.yul\":317:318   */\n      dup1\n        /* \"#utility.yul\":310:322   */\n      revert\n        /* \"#utility.yul\":334:411   */\n    tag_69:\n        /* \"#utility.yul\":371:378   */\n      0x00\n        /* \"#utility.yul\":400:405   */\n      dup2\n        /* \"#utility.yul\":389:405   */\n      swap1\n      pop\n        /* \"#utility.yul\":334:411   */\n      swap2\n      swap1\n      pop\n      jump\t// out\n        /* \"#utility.yul\":417:539   */\n    tag_70:\n        /* \"#utility.yul\":490:514   */\n      tag_110\n        /* \"#utility.yul\":508:513   */\n      dup2\n        /* \"#utility.yul\":490:514   */\n      tag_69\n      jump\t// in\n    tag_110:\n        /* \"#utility.yul\":483:488   */\n      dup2\n        /* \"#utility.yul\":480:515   */\n      eq\n        /* \"#utility.yul\":470:533   */\n      tag_111\n      jumpi\n        /* \"#utility.yul\":529:530   */\n      0x00\n        /* \"#utility.yul\":526:527   */\n      dup1\n        /* \"#utility.yul\":519:531   */\n      revert\n        /* \"#utility.yul\":470:533   */\n    tag_111:\n        /* \"#utility.yul\":417:539   */\n      pop\n      jump\t// out\n        /* \"#utility.yul\":545:684   */\n    tag_71:\n        /* \"#utility.yul\":591:596   */\n      0x00\n        /* \"#utility.yul\":629:635   */\n      dup2\n        /* \"#utility.yul\":616:636   */\n      calldataload\n        /* \"#utility.yul\":607:636   */\n      swap1\n      pop\n        /* \"#utility.yul\":645:678   */\n      tag_113\n        /* \"#utility.yul\":672:677   */\n      dup2\n        /* \"#utility.yul\":645:678   */\n      tag_70\n      jump\t// in\n    tag_113:\n        /* \"#utility.yul\":545:684   */\n      swap3\n      swap2\n      pop\n      pop\n      jump\t// out\n        /* \"#utility.yul\":690:1019   */\n    tag_13:\n        /* \"#utility.yul\":749:755   */\n      0x00\n        /* \"#utility.yul\":798:800   */\n      0x20\n        /* \"#utility.yul\":786:795   */\n      dup3\n        /* \"#utility.yul\":777:784   */\n      dup5\n        /* \"#utility.yul\":773:796   */\n      sub\n        /* \"#utility.yul\":769:801   */\n      slt\n        /* \"#utility.yul\":766:885   */\n      iszero\n      tag_115\n      jumpi\n        /* \"#utility.yul\":804:883   */\n      tag_116\n      tag_67\n      jump\t// in\n    tag_116:\n        /* \"#utility.yul\":766:885   */\n    tag_115:\n        /* \"#utility.yul\":924:925   */\n      0x00\n        /* \"#utility.yul\":949:1002   */\n      tag_117\n        /* \"#utility.yul\":994:1001   */\n      dup5\n        /* \"#utility.yul\":985:991   */\n      dup3\n        /* \"#utility.yul\":974:983   */\n      dup6\n        /* \"#utility.yul\":970:992   */\n      add\n        /* \"#utility.yul\":949:1002   */\n      tag_71\n      jump\t// in\n    tag_117:\n        /* \"#utility.yul\":939:1002   */\n      swap2\n      pop\n        /* \"#utility.yul\":895:1012   */\n      pop\n        /* \"#utility.yul\":690:1019   */\n      swap3\n      swap2\n      pop\n      pop\n      jump\t// out\n        /* \"#utility.yul\":1025:1124   */\n    tag_72:\n        /* \"#utility.yul\":1077:1083   */\n      0x00\n        /* \"#utility.yul\":1111:1116   */\n      dup2\n        /* \"#utility.yul\":1105:1117   */\n      mload\n        /* \"#utility.yul\":1095:1117   */\n      swap1\n      pop\n        /* \"#utility.yul\":1025:1124   */\n      swap2\n      swap1\n      pop\n      jump\t// out\n        /* \"#utility.yul\":1130:1299   */\n    tag_73:\n        /* \"#utility.yul\":1214:1225   */\n      0x00\n        /* \"#utility.yul\":1248:1254   */\n      dup3\n        /* \"#utility.yul\":1243:1246   */\n      dup3\n        /* \"#utility.yul\":1236:1255   */\n      mstore\n        /* \"#utility.yul\":1288:1292   */\n      0x20\n        /* \"#utility.yul\":1283:1286   */\n      dup3\n        /* \"#utility.yul\":1279:1293   */\n      add\n        /* \"#utility.yul\":1264:1293   */\n      swap1\n      pop\n        /* \"#utility.yul\":1130:1299   */\n      swap3\n      swap2\n      pop\n      pop\n      jump\t// out\n        /* \"#utility.yul\":1305:1444   */\n    tag_74:\n        /* \"#utility.yul\":1394:1400   */\n      dup3\n        /* \"#utility.yul\":1389:1392   */\n      dup2\n        /* \"#utility.yul\":1384:1387   */\n      dup4\n        /* \"#utility.yul\":1378:1401   */\n      mcopy\n        /* \"#utility.yul\":1435:1436   */\n      0x00\n        /* \"#utility.yul\":1426:1432   */\n      dup4\n        /* \"#utility.yul\":1421:1424   */\n      dup4\n        /* \"#utility.yul\":1417:1433   */\n      add\n        /* \"#utility.yul\":1410:1437   */\n      mstore\n        /* \"#utility.yul\":1305:1444   */\n      pop\n      pop\n      pop\n      jump\t// out\n        /* \"#utility.yul\":1450:1552   */\n    tag_75:\n        /* \"#utility.yul\":1491:1497   */\n      0x00\n        /* \"#utility.yul\":1542:1544   */\n      0x1f\n        /* \"#utility.yul\":1538:1545   */\n      not\n        /* \"#utility.yul\":1533:1535   */\n      0x1f\n        /* \"#utility.yul\":1526:1531   */\n      dup4\n        /* \"#utility.yul\":1522:1536   */\n      add\n        /* \"#utility.yul\":1518:1546   */\n      and\n        /* \"#utility.yul\":1508:1546   */\n      swap1\n      pop\n        /* \"#utility.yul\":1450:1552   */\n      swap2\n      swap1\n      pop\n      jump\t// out\n        /* \"#utility.yul\":1558:1935   */\n    tag_76:\n        /* \"#utility.yul\":1646:1649   */\n      0x00\n        /* \"#utility.yul\":1674:1713   */\n      tag_123\n        /* \"#utility.yul\":1707:1712   */\n      dup3\n        /* \"#utility.yul\":1674:1713   */\n      tag_72\n      jump\t// in\n    tag_123:\n        /* \"#utility.yul\":1729:1800   */\n      tag_124\n        /* \"#utility.yul\":1793:1799   */\n      dup2\n        /* \"#utility.yul\":1788:1791   */\n      dup6\n        /* \"#utility.yul\":1729:1800   */\n      tag_73\n      jump\t// in\n    tag_124:\n        /* \"#utility.yul\":1722:1800   */\n      swap4\n      pop\n        /* \"#utility.yul\":1809:1874   */\n      tag_125\n        /* \"#utility.yul\":1867:1873   */\n      dup2\n        /* \"#utility.yul\":1862:1865   */\n      dup6\n        /* \"#utility.yul\":1855:1859   */\n      0x20\n        /* \"#utility.yul\":1848:1853   */\n      dup7\n        /* \"#utility.yul\":1844:1860   */\n      add\n        /* \"#utility.yul\":1809:1874   */\n      tag_74\n      jump\t// in\n    tag_125:\n        /* \"#utility.yul\":1899:1928   */\n      tag_126\n        /* \"#utility.yul\":1921:1927   */\n      dup2\n        /* \"#utility.yul\":1899:1928   */\n      tag_75\n      jump\t// in\n    tag_126:\n        /* \"#utility.yul\":1894:1897   */\n      dup5\n        /* \"#utility.yul\":1890:1929   */\n      add\n        /* \"#utility.yul\":1883:1929   */\n      swap2\n      pop\n        /* \"#utility.yul\":1650:1935   */\n      pop\n        /* \"#utility.yul\":1558:1935   */\n      swap3\n      swap2\n      pop\n      pop\n      jump\t// out\n        /* \"#utility.yul\":1941:2254   */\n    tag_16:\n        /* \"#utility.yul\":2054:2058   */\n      0x00\n        /* \"#utility.yul\":2092:2094   */\n      0x20\n        /* \"#utility.yul\":2081:2090   */\n      dup3\n        /* \"#utility.yul\":2077:2095   */\n      add\n        /* \"#utility.yul\":2069:2095   */\n      swap1\n      pop\n        /* \"#utility.yul\":2141:2150   */\n      dup2\n        /* \"#utility.yul\":2135:2139   */\n      dup2\n        /* \"#utility.yul\":2131:2151   */\n      sub\n        /* \"#utility.yul\":2127:2128   */\n      0x00\n        /* \"#utility.yul\":2116:2125   */\n      dup4\n        /* \"#utility.yul\":2112:2129   */\n      add\n        /* \"#utility.yul\":2105:2152   */\n      mstore\n        /* \"#utility.yul\":2169:2247   */\n      tag_128\n        /* \"#utility.yul\":2242:2246   */\n      dup2\n        /* \"#utility.yul\":2233:2239   */\n      dup5\n        /* \"#utility.yul\":2169:2247   */\n      tag_76\n      jump\t// in\n    tag_128:\n        /* \"#utility.yul\":2161:2247   */\n      swap1\n      pop\n        /* \"#utility.yul\":1941:2254   */\n      swap3\n      swap2\n      pop\n      pop\n      jump\t// out\n        /* \"#utility.yul\":2260:2378   */\n    tag_77:\n        /* \"#utility.yul\":2347:2371   */\n      tag_130\n        /* \"#utility.yul\":2365:2370   */\n      dup2\n        /* \"#utility.yul\":2347:2371   */\n      tag_69\n      jump\t// in\n    tag_130:\n        /* \"#utility.yul\":2342:2345   */\n      dup3\n        /* \"#utility.yul\":2335:2372   */\n      mstore\n        /* \"#utility.yul\":2260:2378   */\n      pop\n      pop\n      jump\t// out\n        /* \"#utility.yul\":2384:2606   */\n    tag_20:\n        /* \"#utility.yul\":2477:2481   */\n      0x00\n        /* \"#utility.yul\":2515:2517   */\n      0x20\n        /* \"#utility.yul\":2504:2513   */\n      dup3\n        /* \"#utility.yul\":2500:2518   */\n      add\n        /* \"#utility.yul\":2492:2518   */\n      swap1\n      pop\n        /* \"#utility.yul\":2528:2599   */\n      tag_132\n        /* \"#utility.yul\":2596:2597   */\n      0x00\n        /* \"#utility.yul\":2585:2594   */\n      dup4\n        /* \"#utility.yul\":2581:2598   */\n      add\n        /* \"#utility.yul\":2572:2578   */\n      dup5\n        /* \"#utility.yul\":2528:2599   */\n      tag_77\n      jump\t// in\n    tag_132:\n        /* \"#utility.yul\":2384:2606   */\n      swap3\n      swap2\n      pop\n      pop\n      jump\t// out\n        /* \"#utility.yul\":2612:3035   */\n    tag_31:\n        /* \"#utility.yul\":2753:2757   */\n      0x00\n        /* \"#utility.yul\":2791:2793   */\n      0x40\n        /* \"#utility.yul\":2780:2789   */\n      dup3\n        /* \"#utility.yul\":2776:2794   */\n      add\n        /* \"#utility.yul\":2768:2794   */\n      swap1\n      pop\n        /* \"#utility.yul\":2804:2875   */\n      tag_134\n        /* \"#utility.yul\":2872:2873   */\n      0x00\n        /* \"#utility.yul\":2861:2870   */\n      dup4\n        /* \"#utility.yul\":2857:2874   */\n      add\n        /* \"#utility.yul\":2848:2854   */\n      dup6\n        /* \"#utility.yul\":2804:2875   */\n      tag_77\n      jump\t// in\n    tag_134:\n        /* \"#utility.yul\":2922:2931   */\n      dup2\n        /* \"#utility.yul\":2916:2920   */\n      dup2\n        /* \"#utility.yul\":2912:2932   */\n      sub\n        /* \"#utility.yul\":2907:2909   */\n      0x20\n        /* \"#utility.yul\":2896:2905   */\n      dup4\n        /* \"#utility.yul\":2892:2910   */\n      add\n        /* \"#utility.yul\":2885:2933   */\n      mstore\n        /* \"#utility.yul\":2950:3028   */\n      tag_135\n        /* \"#utility.yul\":3023:3027   */\n      dup2\n        /* \"#utility.yul\":3014:3020   */\n      dup5\n        /* \"#utility.yul\":2950:3028   */\n      tag_76\n      jump\t// in\n    tag_135:\n        /* \"#utility.yul\":2942:3028   */\n      swap1\n      pop\n        /* \"#utility.yul\":2612:3035   */\n      swap4\n      swap3\n      pop\n      pop\n      pop\n      jump\t// out\n        /* \"#utility.yul\":3041:3158   */\n    tag_78:\n        /* \"#utility.yul\":3150:3151   */\n      0x00\n        /* \"#utility.yul\":3147:3148   */\n      dup1\n        /* \"#utility.yul\":3140:3152   */\n      revert\n        /* \"#utility.yul\":3164:3281   */\n    tag_79:\n        /* \"#utility.yul\":3273:3274   */\n      0x00\n        /* \"#utility.yul\":3270:3271   */\n      dup1\n        /* \"#utility.yul\":3263:3275   */\n      revert\n        /* \"#utility.yul\":3287:3467   */\n    tag_80:\n        /* \"#utility.yul\":3335:3412   */\n      0x4e487b7100000000000000000000000000000000000000000000000000000000\n        /* \"#utility.yul\":3332:3333   */\n      0x00\n        /* \"#utility.yul\":3325:3413   */\n      mstore\n        /* \"#utility.yul\":3432:3436   */\n      0x41\n        /* \"#utility.yul\":3429:3430   */\n      0x04\n        /* \"#utility.yul\":3422:3437   */\n      mstore\n        /* \"#utility.yul\":3456:3460   */\n      0x24\n        /* \"#utility.yul\":3453:3454   */\n      0x00\n        /* \"#utility.yul\":3446:3461   */\n      revert\n        /* \"#utility.yul\":3473:3754   */\n    tag_81:\n        /* \"#utility.yul\":3556:3583   */\n      tag_140\n        /* \"#utility.yul\":3578:3582   */\n      dup3\n        /* \"#utility.yul\":3556:3583   */\n      tag_75\n      jump\t// in\n    tag_140:\n        /* \"#utility.yul\":3548:3554   */\n      dup2\n        /* \"#utility.yul\":3544:3584   */\n      add\n        /* \"#utility.yul\":3686:3692   */\n      dup2\n        /* \"#utility.yul\":3674:3684   */\n      dup2\n        /* \"#utility.yul\":3671:3693   */\n      lt\n        /* \"#utility.yul\":3650:3668   */\n      0xffffffffffffffff\n        /* \"#utility.yul\":3638:3648   */\n      dup3\n        /* \"#utility.yul\":3635:3669   */\n      gt\n        /* \"#utility.yul\":3632:3694   */\n      or\n        /* \"#utility.yul\":3629:3717   */\n      iszero\n      tag_141\n      jumpi\n        /* \"#utility.yul\":3697:3715   */\n      tag_142\n      tag_80\n      jump\t// in\n    tag_142:\n        /* \"#utility.yul\":3629:3717   */\n    tag_141:\n        /* \"#utility.yul\":3737:3747   */\n      dup1\n        /* \"#utility.yul\":3733:3735   */\n      0x40\n        /* \"#utility.yul\":3726:3748   */\n      mstore\n        /* \"#utility.yul\":3516:3754   */\n      pop\n        /* \"#utility.yul\":3473:3754   */\n      pop\n      pop\n      jump\t// out\n        /* \"#utility.yul\":3760:3889   */\n    tag_82:\n        /* \"#utility.yul\":3794:3800   */\n      0x00\n        /* \"#utility.yul\":3821:3841   */\n      tag_144\n      tag_66\n      jump\t// in\n    tag_144:\n        /* \"#utility.yul\":3811:3841   */\n      swap1\n      pop\n        /* \"#utility.yul\":3850:3883   */\n      tag_145\n        /* \"#utility.yul\":3878:3882   */\n      dup3\n        /* \"#utility.yul\":3870:3876   */\n      dup3\n        /* \"#utility.yul\":3850:3883   */\n      tag_81\n      jump\t// in\n    tag_145:\n        /* \"#utility.yul\":3760:3889   */\n      swap2\n      swap1\n      pop\n      jump\t// out\n        /* \"#utility.yul\":3895:4203   */\n    tag_83:\n        /* \"#utility.yul\":3957:3961   */\n      0x00\n        /* \"#utility.yul\":4047:4065   */\n      0xffffffffffffffff\n        /* \"#utility.yul\":4039:4045   */\n      dup3\n        /* \"#utility.yul\":4036:4066   */\n      gt\n        /* \"#utility.yul\":4033:4089   */\n      iszero\n      tag_147\n      jumpi\n        /* \"#utility.yul\":4069:4087   */\n      tag_148\n      tag_80\n      jump\t// in\n    tag_148:\n        /* \"#utility.yul\":4033:4089   */\n    tag_147:\n        /* \"#utility.yul\":4107:4136   */\n      tag_149\n        /* \"#utility.yul\":4129:4135   */\n      dup3\n        /* \"#utility.yul\":4107:4136   */\n      tag_75\n      jump\t// in\n    tag_149:\n        /* \"#utility.yul\":4099:4136   */\n      swap1\n      pop\n        /* \"#utility.yul\":4191:4195   */\n      0x20\n        /* \"#utility.yul\":4185:4189   */\n      dup2\n        /* \"#utility.yul\":4181:4196   */\n      add\n        /* \"#utility.yul\":4173:4196   */\n      swap1\n      pop\n        /* \"#utility.yul\":3895:4203   */\n      swap2\n      swap1\n      pop\n      jump\t// out\n        /* \"#utility.yul\":4209:4357   */\n    tag_84:\n        /* \"#utility.yul\":4307:4313   */\n      dup3\n        /* \"#utility.yul\":4302:4305   */\n      dup2\n        /* \"#utility.yul\":4297:4300   */\n      dup4\n        /* \"#utility.yul\":4284:4314   */\n      calldatacopy\n        /* \"#utility.yul\":4348:4349   */\n      0x00\n        /* \"#utility.yul\":4339:4345   */\n      dup4\n        /* \"#utility.yul\":4334:4337   */\n      dup4\n        /* \"#utility.yul\":4330:4346   */\n      add\n        /* \"#utility.yul\":4323:4350   */\n      mstore\n        /* \"#utility.yul\":4209:4357   */\n      pop\n      pop\n      pop\n      jump\t// out\n        /* \"#utility.yul\":4363:4788   */\n    tag_85:\n        /* \"#utility.yul\":4441:4446   */\n      0x00\n        /* \"#utility.yul\":4466:4532   */\n      tag_152\n        /* \"#utility.yul\":4482:4531   */\n      tag_153\n        /* \"#utility.yul\":4524:4530   */\n      dup5\n        /* \"#utility.yul\":4482:4531   */\n      tag_83\n      jump\t// in\n    tag_153:\n        /* \"#utility.yul\":4466:4532   */\n      tag_82\n      jump\t// in\n    tag_152:\n        /* \"#utility.yul\":4457:4532   */\n      swap1\n      pop\n        /* \"#utility.yul\":4555:4561   */\n      dup3\n        /* \"#utility.yul\":4548:4553   */\n      dup2\n        /* \"#utility.yul\":4541:4562   */\n      mstore\n        /* \"#utility.yul\":4593:4597   */\n      0x20\n        /* \"#utility.yul\":4586:4591   */\n      dup2\n        /* \"#utility.yul\":4582:4598   */\n      add\n        /* \"#utility.yul\":4631:4634   */\n      dup5\n        /* \"#utility.yul\":4622:4628   */\n      dup5\n        /* \"#utility.yul\":4617:4620   */\n      dup5\n        /* \"#utility.yul\":4613:4629   */\n      add\n        /* \"#utility.yul\":4610:4635   */\n      gt\n        /* \"#utility.yul\":4607:4719   */\n      iszero\n      tag_154\n      jumpi\n        /* \"#utility.yul\":4638:4717   */\n      tag_155\n      tag_79\n      jump\t// in\n    tag_155:\n        /* \"#utility.yul\":4607:4719   */\n    tag_154:\n        /* \"#utility.yul\":4728:4782   */\n      tag_156\n        /* \"#utility.yul\":4775:4781   */\n      dup5\n        /* \"#utility.yul\":4770:4773   */\n      dup3\n        /* \"#utility.yul\":4765:4768   */\n      dup6\n        /* \"#utility.yul\":4728:4782   */\n      tag_84\n      jump\t// in\n    tag_156:\n        /* \"#utility.yul\":4447:4788   */\n      pop\n        /* \"#utility.yul\":4363:4788   */\n      swap4\n      swap3\n      pop\n      pop\n      pop\n      jump\t// out\n        /* \"#utility.yul\":4808:5148   */\n    tag_86:\n        /* \"#utility.yul\":4864:4869   */\n      0x00\n        /* \"#utility.yul\":4913:4916   */\n      dup3\n        /* \"#utility.yul\":4906:4910   */\n      0x1f\n        /* \"#utility.yul\":4898:4904   */\n      dup4\n        /* \"#utility.yul\":4894:4911   */\n      add\n        /* \"#utility.yul\":4890:4917   */\n      slt\n        /* \"#utility.yul\":4880:5002   */\n      tag_158\n      jumpi\n        /* \"#utility.yul\":4921:5000   */\n      tag_159\n      tag_78\n      jump\t// in\n    tag_159:\n        /* \"#utility.yul\":4880:5002   */\n    tag_158:\n        /* \"#utility.yul\":5038:5044   */\n      dup2\n        /* \"#utility.yul\":5025:5045   */\n      calldataload\n        /* \"#utility.yul\":5063:5142   */\n      tag_160\n        /* \"#utility.yul\":5138:5141   */\n      dup5\n        /* \"#utility.yul\":5130:5136   */\n      dup3\n        /* \"#utility.yul\":5123:5127   */\n      0x20\n        /* \"#utility.yul\":5115:5121   */\n      dup7\n        /* \"#utility.yul\":5111:5128   */\n      add\n        /* \"#utility.yul\":5063:5142   */\n      tag_85\n      jump\t// in\n    tag_160:\n        /* \"#utility.yul\":5054:5142   */\n      swap2\n      pop\n        /* \"#utility.yul\":4870:5148   */\n      pop\n        /* \"#utility.yul\":4808:5148   */\n      swap3\n      swap2\n      pop\n      pop\n      jump\t// out\n        /* \"#utility.yul\":5154:5808   */\n    tag_34:\n        /* \"#utility.yul\":5232:5238   */\n      0x00\n        /* \"#utility.yul\":5240:5246   */\n      dup1\n        /* \"#utility.yul\":5289:5291   */\n      0x40\n        /* \"#utility.yul\":5277:5286   */\n      dup4\n        /* \"#utility.yul\":5268:5275   */\n      dup6\n        /* \"#utility.yul\":5264:5287   */\n      sub\n        /* \"#utility.yul\":5260:5292   */\n      slt\n        /* \"#utility.yul\":5257:5376   */\n      iszero\n      tag_162\n      jumpi\n        /* \"#utility.yul\":5295:5374   */\n      tag_163\n      tag_67\n      jump\t// in\n    tag_163:\n        /* \"#utility.yul\":5257:5376   */\n    tag_162:\n        /* \"#utility.yul\":5415:5416   */\n      0x00\n        /* \"#utility.yul\":5440:5493   */\n      tag_164\n        /* \"#utility.yul\":5485:5492   */\n      dup6\n        /* \"#utility.yul\":5476:5482   */\n      dup3\n        /* \"#utility.yul\":5465:5474   */\n      dup7\n        /* \"#utility.yul\":5461:5483   */\n      add\n        /* \"#utility.yul\":5440:5493   */\n      tag_71\n      jump\t// in\n    tag_164:\n        /* \"#utility.yul\":5430:5493   */\n      swap3\n      pop\n        /* \"#utility.yul\":5386:5503   */\n      pop\n        /* \"#utility.yul\":5570:5572   */\n      0x20\n        /* \"#utility.yul\":5559:5568   */\n      dup4\n        /* \"#utility.yul\":5555:5573   */\n      add\n        /* \"#utility.yul\":5542:5574   */\n      calldataload\n        /* \"#utility.yul\":5601:5619   */\n      0xffffffffffffffff\n        /* \"#utility.yul\":5593:5599   */\n      dup2\n        /* \"#utility.yul\":5590:5620   */\n      gt\n        /* \"#utility.yul\":5587:5704   */\n      iszero\n      tag_165\n      jumpi\n        /* \"#utility.yul\":5623:5702   */\n      tag_166\n      tag_68\n      jump\t// in\n    tag_166:\n        /* \"#utility.yul\":5587:5704   */\n    tag_165:\n        /* \"#utility.yul\":5728:5791   */\n      tag_167\n        /* \"#utility.yul\":5783:5790   */\n      dup6\n        /* \"#utility.yul\":5774:5780   */\n      dup3\n        /* \"#utility.yul\":5763:5772   */\n      dup7\n        /* \"#utility.yul\":5759:5781   */\n      add\n        /* \"#utility.yul\":5728:5791   */\n      tag_86\n      jump\t// in\n    tag_167:\n        /* \"#utility.yul\":5718:5791   */\n      swap2\n      pop\n        /* \"#utility.yul\":5513:5801   */\n      pop\n        /* \"#utility.yul\":5154:5808   */\n      swap3\n      pop\n      swap3\n      swap1\n      pop\n      jump\t// out\n        /* \"#utility.yul\":5814:5994   */\n    tag_87:\n        /* \"#utility.yul\":5862:5939   */\n      0x4e487b7100000000000000000000000000000000000000000000000000000000\n        /* \"#utility.yul\":5859:5860   */\n      0x00\n        /* \"#utility.yul\":5852:5940   */\n      mstore\n        /* \"#utility.yul\":5959:5963   */\n      0x22\n        /* \"#utility.yul\":5956:5957   */\n      0x04\n        /* \"#utility.yul\":5949:5964   */\n      mstore\n        /* \"#utility.yul\":5983:5987   */\n      0x24\n        /* \"#utility.yul\":5980:5981   */\n      0x00\n        /* \"#utility.yul\":5973:5988   */\n      revert\n        /* \"#utility.yul\":6000:6320   */\n    tag_40:\n        /* \"#utility.yul\":6044:6050   */\n      0x00\n        /* \"#utility.yul\":6081:6082   */\n      0x02\n        /* \"#utility.yul\":6075:6079   */\n      dup3\n        /* \"#utility.yul\":6071:6083   */\n      div\n        /* \"#utility.yul\":6061:6083   */\n      swap1\n      pop\n        /* \"#utility.yul\":6128:6129   */\n      0x01\n        /* \"#utility.yul\":6122:6126   */\n      dup3\n        /* \"#utility.yul\":6118:6130   */\n      and\n        /* \"#utility.yul\":6149:6167   */\n      dup1\n        /* \"#utility.yul\":6139:6220   */\n      tag_170\n      jumpi\n        /* \"#utility.yul\":6205:6209   */\n      0x7f\n        /* \"#utility.yul\":6197:6203   */\n      dup3\n        /* \"#utility.yul\":6193:6210   */\n      and\n        /* \"#utility.yul\":6183:6210   */\n      swap2\n      pop\n        /* \"#utility.yul\":6139:6220   */\n    tag_170:\n        /* \"#utility.yul\":6267:6269   */\n      0x20\n        /* \"#utility.yul\":6259:6265   */\n      dup3\n        /* \"#utility.yul\":6256:6270   */\n      lt\n        /* \"#utility.yul\":6236:6254   */\n      dup2\n        /* \"#utility.yul\":6233:6271   */\n      sub\n        /* \"#utility.yul\":6230:6314   */\n      tag_171\n      jumpi\n        /* \"#utility.yul\":6286:6304   */\n      tag_172\n      tag_87\n      jump\t// in\n    tag_172:\n        /* \"#utility.yul\":6230:6314   */\n    tag_171:\n        /* \"#utility.yul\":6051:6320   */\n      pop\n        /* \"#utility.yul\":6000:6320   */\n      swap2\n      swap1\n      pop\n      jump\t// out\n        /* \"#utility.yul\":6326:6506   */\n    tag_88:\n        /* \"#utility.yul\":6374:6451   */\n      0x4e487b7100000000000000000000000000000000000000000000000000000000\n        /* \"#utility.yul\":6371:6372   */\n      0x00\n        /* \"#utility.yul\":6364:6452   */\n      mstore\n        /* \"#utility.yul\":6471:6475   */\n      0x11\n        /* \"#utility.yul\":6468:6469   */\n      0x04\n        /* \"#utility.yul\":6461:6476   */\n      mstore\n        /* \"#utility.yul\":6495:6499   */\n      0x24\n        /* \"#utility.yul\":6492:6493   */\n      0x00\n        /* \"#utility.yul\":6485:6500   */\n      revert\n        /* \"#utility.yul\":6512:6703   */\n    tag_48:\n        /* \"#utility.yul\":6552:6555   */\n      0x00\n        /* \"#utility.yul\":6571:6591   */\n      tag_175\n        /* \"#utility.yul\":6589:6590   */\n      dup3\n        /* \"#utility.yul\":6571:6591   */\n      tag_69\n      jump\t// in\n    tag_175:\n        /* \"#utility.yul\":6566:6591   */\n      swap2\n      pop\n        /* \"#utility.yul\":6605:6625   */\n      tag_176\n        /* \"#utility.yul\":6623:6624   */\n      dup4\n        /* \"#utility.yul\":6605:6625   */\n      tag_69\n      jump\t// in\n    tag_176:\n        /* \"#utility.yul\":6600:6625   */\n      swap3\n      pop\n        /* \"#utility.yul\":6648:6649   */\n      dup3\n        /* \"#utility.yul\":6645:6646   */\n      dup3\n        /* \"#utility.yul\":6641:6650   */\n      add\n        /* \"#utility.yul\":6634:6650   */\n      swap1\n      pop\n        /* \"#utility.yul\":6669:6672   */\n      dup1\n        /* \"#utility.yul\":6666:6667   */\n      dup3\n        /* \"#utility.yul\":6663:6673   */\n      gt\n        /* \"#utility.yul\":6660:6696   */\n      iszero\n      tag_177\n      jumpi\n        /* \"#utility.yul\":6676:6694   */\n      tag_178\n      tag_88\n      jump\t// in\n    tag_178:\n        /* \"#utility.yul\":6660:6696   */\n    tag_177:\n        /* \"#utility.yul\":6512:6703   */\n      swap3\n      swap2\n      pop\n      pop\n      jump\t// out\n        /* \"#utility.yul\":6709:6850   */\n    tag_89:\n        /* \"#utility.yul\":6758:6762   */\n      0x00\n        /* \"#utility.yul\":6781:6784   */\n      dup2\n        /* \"#utility.yul\":6773:6784   */\n      swap1\n      pop\n        /* \"#utility.yul\":6804:6807   */\n      dup2\n        /* \"#utility.yul\":6801:6802   */\n      0x00\n        /* \"#utility.yul\":6794:6808   */\n      mstore\n        /* \"#utility.yul\":6838:6842   */\n      0x20\n        /* \"#utility.yul\":6835:6836   */\n      0x00\n        /* \"#utility.yul\":6825:6843   */\n      keccak256\n        /* \"#utility.yul\":6817:6843   */\n      swap1\n      pop\n        /* \"#utility.yul\":6709:6850   */\n      swap2\n      swap1\n      pop\n      jump\t// out\n        /* \"#utility.yul\":6856:6949   */\n    tag_90:\n        /* \"#utility.yul\":6893:6899   */\n      0x00\n        /* \"#utility.yul\":6940:6942   */\n      0x20\n        /* \"#utility.yul\":6935:6937   */\n      0x1f\n        /* \"#utility.yul\":6928:6933   */\n      dup4\n        /* \"#utility.yul\":6924:6938   */\n      add\n        /* \"#utility.yul\":6920:6943   */\n      div\n        /* \"#utility.yul\":6910:6943   */\n      swap1\n      pop\n        /* \"#utility.yul\":6856:6949   */\n      swap2\n      swap1\n      pop\n      jump\t// out\n        /* \"#utility.yul\":6955:7062   */\n    tag_91:\n        /* \"#utility.yul\":6999:7007   */\n      0x00\n        /* \"#utility.yul\":7049:7054   */\n      dup3\n        /* \"#utility.yul\":7043:7047   */\n      dup3\n        /* \"#utility.yul\":7039:7055   */\n      shl\n        /* \"#utility.yul\":7018:7055   */\n      swap1\n      pop\n        /* \"#utility.yul\":6955:7062   */\n      swap3\n      swap2\n      pop\n      pop\n      jump\t// out\n        /* \"#utility.yul\":7068:7461   */\n    tag_92:\n        /* \"#utility.yul\":7137:7143   */\n      0x00\n        /* \"#utility.yul\":7187:7188   */\n      0x08\n        /* \"#utility.yul\":7175:7185   */\n      dup4\n        /* \"#utility.yul\":7171:7189   */\n      mul\n        /* \"#utility.yul\":7210:7307   */\n      tag_183\n        /* \"#utility.yul\":7240:7306   */\n      0xffffffffffffffffffffffffffffffffffffffffffffffffffffffffffffffff\n        /* \"#utility.yul\":7229:7238   */\n      dup3\n        /* \"#utility.yul\":7210:7307   */\n      tag_91\n      jump\t// in\n    tag_183:\n        /* \"#utility.yul\":7328:7367   */\n      tag_184\n        /* \"#utility.yul\":7358:7366   */\n      dup7\n        /* \"#utility.yul\":7347:7356   */\n      dup4\n        /* \"#utility.yul\":7328:7367   */\n      tag_91\n      jump\t// in\n    tag_184:\n        /* \"#utility.yul\":7316:7367   */\n      swap6\n      pop\n        /* \"#utility.yul\":7400:7404   */\n      dup1\n        /* \"#utility.yul\":7396:7405   */\n      not\n        /* \"#utility.yul\":7389:7394   */\n      dup5\n        /* \"#utility.yul\":7385:7406   */\n      and\n        /* \"#utility.yul\":7376:7406   */\n      swap4\n      pop\n        /* \"#utility.yul\":7449:7453   */\n      dup1\n        /* \"#utility.yul\":7439:7447   */\n      dup7\n        /* \"#utility.yul\":7435:7454   */\n      and\n        /* \"#utility.yul\":7428:7433   */\n      dup5\n        /* \"#utility.yul\":7425:7455   */\n      or\n        /* \"#utility.yul\":7415:7455   */\n      swap3\n      pop\n        /* \"#utility.yul\":7144:7461   */\n      pop\n      pop\n        /* \"#utility.yul\":7068:7461   */\n      swap4\n      swap3\n      pop\n      pop\n      pop\n      jump\t// out\n        /* \"#utility.yul\":7467:7527   */\n    tag_93:\n        /* \"#utility.yul\":7495:7498   */\n      0x00\n        /* \"#utility.yul\":7516:7521   */\n      dup2\n        /* \"#utility.yul\":7509:7521   */\n      swap1\n      pop\n        /* \"#utility.yul\":7467:7527   */\n      swap2\n      swap1\n      pop\n      jump\t// out\n        /* \"#utility.yul\":7533:7675   */\n    tag_94:\n        /* \"#utility.yul\":7583:7592   */\n      0x00\n        /* \"#utility.yul\":7616:7669   */\n      tag_187\n        /* \"#utility.yul\":7634:7668   */\n      tag_188\n        /* \"#utility.yul\":7643:7667   */\n      tag_189\n        /* \"#utility.yul\":7661:7666   */\n      dup5\n        /* \"#utility.yul\":7643:7667   */\n      tag_69\n      jump\t// in\n    tag_189:\n        /* \"#utility.yul\":7634:7668   */\n      tag_93\n      jump\t// in\n    tag_188:\n        /* \"#utility.yul\":7616:7669   */\n      tag_69\n      jump\t// in\n    tag_187:\n        /* \"#utility.yul\":7603:7669   */\n      swap1\n      pop\n        /* \"#utility.yul\":7533:7675   */\n      swap2\n      swap1\n      pop\n      jump\t// out\n        /* \"#utility.yul\":7681:7756   */\n    tag_95:\n        /* \"#utility.yul\":7724:7727   */\n      0x00\n        /* \"#utility.yul\":7745:7750   */\n      dup2\n        /* \"#utility.yul\":7738:7750   */\n      swap1\n      pop\n        /* \"#utility.yul\":7681:7756   */\n      swap2\n      swap1\n      pop\n      jump\t// out\n        /* \"#utility.yul\":7762:8031   */\n    tag_96:\n        /* \"#utility.yul\":7872:7911   */\n      tag_192\n        /* \"#utility.yul\":7903:7910   */\n      dup4\n        /* \"#utility.yul\":7872:7911   */\n      tag_94\n      jump\t// in\n    tag_192:\n        /* \"#utility.yul\":7933:8024   */\n      tag_193\n        /* \"#utility.yul\":7982:8023   */\n      tag_194\n        /* \"#utility.yul\":8006:8022   */\n      dup3\n        /* \"#utility.yul\":7982:8023   */\n      tag_95\n      jump\t// in\n    tag_194:\n        /* \"#utility.yul\":7974:7980   */\n      dup5\n        /* \"#utility.yul\":7967:7971   */\n      dup5\n        /* \"#utility.yul\":7961:7972   */\n      sload\n        /* \"#utility.yul\":7933:8024   */\n      tag_92\n      jump\t// in\n    tag_193:\n        /* \"#utility.yul\":7927:7931   */\n      dup3\n        /* \"#utility.yul\":7920:8025   */\n      sstore\n        /* \"#utility.yul\":7838:8031   */\n      pop\n        /* \"#utility.yul\":7762:8031   */\n      pop\n      pop\n      pop\n      jump\t// out\n        /* \"#utility.yul\":8037:8110   */\n    tag_97:\n        /* \"#utility.yul\":8082:8085   */\n      0x00\n        /* \"#utility.yul\":8037:8110   */\n      swap1\n      jump\t// out\n        /* \"#utility.yul\":8116:8305   */\n    tag_98:\n        /* \"#utility.yul\":8193:8225   */\n      tag_197\n      tag_97\n      jump\t// in\n    tag_197:\n        /* \"#utility.yul\":8234:8299   */\n      tag_198\n        /* \"#utility.yul\":8292:8298   */\n      dup2\n        /* \"#utility.yul\":8284:8290   */\n      dup5\n        /* \"#utility.yul\":8278:8282   */\n      dup5\n        /* \"#utility.yul\":8234:8299   */\n      tag_96\n      jump\t// in\n    tag_198:\n        /* \"#utility.yul\":8169:8305   */\n      pop\n        /* \"#utility.yul\":8116:8305   */\n      pop\n      pop\n      jump\t// out\n        /* \"#utility.yul\":8311:8497   */\n    tag_99:\n        /* \"#utility.yul\":8371:8491   */\n    tag_200:\n        /* \"#utility.yul\":8388:8391   */\n      dup2\n        /* \"#utility.yul\":8381:8386   */\n      dup2\n        /* \"#utility.yul\":8378:8392   */\n      lt\n        /* \"#utility.yul\":8371:8491   */\n      iszero\n      tag_202\n      jumpi\n        /* \"#utility.yul\":8442:8481   */\n      tag_203\n        /* \"#utility.yul\":8479:8480   */\n      0x00\n        /* \"#utility.yul\":8472:8477   */\n      dup3\n        /* \"#utility.yul\":8442:8481   */\n      tag_98\n      jump\t// in\n    tag_203:\n        /* \"#utility.yul\":8415:8416   */\n      0x01\n        /* \"#utility.yul\":8408:8413   */\n      dup2\n        /* \"#utility.yul\":8404:8417   */\n      add\n        /* \"#utility.yul\":8395:8417   */\n      swap1\n      pop\n        /* \"#utility.yul\":8371:8491   */\n      jump(tag_200)\n    tag_202:\n        /* \"#utility.yul\":8311:8497   */\n      pop\n      pop\n      jump\t// out\n        /* \"#utility.yul\":8503:9046   */\n    tag_100:\n        /* \"#utility.yul\":8604:8606   */\n      0x1f\n        /* \"#utility.yul\":8599:8602   */\n      dup3\n        /* \"#utility.yul\":8596:8607   */\n      gt\n        /* \"#utility.yul\":8593:9039   */\n      iszero\n      tag_205\n      jumpi\n        /* \"#utility.yul\":8638:8676   */\n      tag_206\n        /* \"#utility.yul\":8670:8675   */\n      dup2\n        /* \"#utility.yul\":8638:8676   */\n      tag_89\n      jump\t// in\n    tag_206:\n        /* \"#utility.yul\":8722:8751   */\n      tag_207\n        /* \"#utility.yul\":8740:8750   */\n      dup5\n        /* \"#utility.yul\":8722:8751   */\n      tag_90\n      jump\t// in\n    tag_207:\n        /* \"#utility.yul\":8712:8720   */\n      dup2\n        /* \"#utility.yul\":8708:8752   */\n      add\n        /* \"#utility.yul\":8905:8907   */\n      0x20\n        /* \"#utility.yul\":8893:8903   */\n      dup6\n        /* \"#utility.yul\":8890:8908   */\n      lt\n        /* \"#utility.yul\":8887:8936   */\n      iszero\n      tag_208\n      jumpi\n        /* \"#utility.yul\":8926:8934   */\n      dup2\n        /* \"#utility.yul\":8911:8934   */\n      swap1\n      pop\n        /* \"#utility.yul\":8887:8936   */\n    tag_208:\n        /* \"#utility.yul\":8949:9029   */\n      tag_209\n        /* \"#utility.yul\":9005:9027   */\n      tag_210\n        /* \"#utility.yul\":9023:9026   */\n      dup6\n        /* \"#utility.yul\":9005:9027   */\n      tag_90\n      jump\t// in\n    tag_210:\n        /* \"#utility.yul\":8995:9003   */\n      dup4\n        /* \"#utility.yul\":8991:9028   */\n      add\n        /* \"#utility.yul\":8978:8989   */\n      dup3\n        /* \"#utility.yul\":8949:9029   */\n      tag_99\n      jump\t// in\n    tag_209:\n        /* \"#utility.yul\":8608:9039   */\n      pop\n      pop\n        /* \"#utility.yul\":8593:9039   */\n    tag_205:\n        /* \"#utility.yul\":8503:9046   */\n      pop\n      pop\n      pop\n      jump\t// out\n        /* \"#utility.yul\":9052:9169   */\n    tag_101:\n        /* \"#utility.yul\":9106:9114   */\n      0x00\n        /* \"#utility.yul\":9156:9161   */\n      dup3\n        /* \"#utility.yul\":9150:9154   */\n      dup3\n        /* \"#utility.yul\":9146:9162   */\n      shr\n        /* \"#utility.yul\":9125:9162   */\n      swap1\n      pop\n        /* \"#utility.yul\":9052:9169   */\n      swap3\n      swap2\n      pop\n      pop\n      jump\t// out\n        /* \"#utility.yul\":9175:9344   */\n    tag_102:\n        /* \"#utility.yul\":9219:9225   */\n      0x00\n        /* \"#utility.yul\":9252:9303   */\n      tag_213\n        /* \"#utility.yul\":9300:9301   */\n      0x00\n        /* \"#utility.yul\":9296:9302   */\n      not\n        /* \"#utility.yul\":9288:9293   */\n      dup5\n        /* \"#utility.yul\":9285:9286   */\n      0x08\n        /* \"#utility.yul\":9281:9294   */\n      mul\n        /* \"#utility.yul\":9252:9303   */\n      tag_101\n      jump\t// in\n    tag_213:\n        /* \"#utility.yul\":9248:9304   */\n      not\n        /* \"#utility.yul\":9333:9337   */\n      dup1\n        /* \"#utility.yul\":9327:9331   */\n      dup4\n        /* \"#utility.yul\":9323:9338   */\n      and\n        /* \"#utility.yul\":9313:9338   */\n      swap2\n      pop\n        /* \"#utility.yul\":9226:9344   */\n      pop\n        /* \"#utility.yul\":9175:9344   */\n      swap3\n      swap2\n      pop\n      pop\n      jump\t// out\n        /* \"#utility.yul\":9349:9644   */\n    tag_103:\n        /* \"#utility.yul\":9425:9429   */\n      0x00\n        /* \"#utility.yul\":9571:9600   */\n      tag_215\n        /* \"#utility.yul\":9596:9599   */\n      dup4\n        /* \"#utility.yul\":9590:9594   */\n      dup4\n        /* \"#utility.yul\":9571:9600   */\n      tag_102\n      jump\t// in\n    tag_215:\n        /* \"#utility.yul\":9563:9600   */\n      swap2\n      pop\n        /* \"#utility.yul\":9633:9636   */\n      dup3\n        /* \"#utility.yul\":9630:9631   */\n      0x02\n        /* \"#utility.yul\":9626:9637   */\n      mul\n        /* \"#utility.yul\":9620:9624   */\n      dup3\n        /* \"#utility.yul\":9617:9638   */\n      or\n        /* \"#utility.yul\":9609:9638   */\n      swap1\n      pop\n        /* \"#utility.yul\":9349:9644   */\n      swap3\n      swap2\n      pop\n      pop\n      jump\t// out\n        /* \"#utility.yul\":9649:11044   */\n    tag_59:\n        /* \"#utility.yul\":9766:9803   */\n      tag_217\n        /* \"#utility.yul\":9799:9802   */\n      dup3\n        /* \"#utility.yul\":9766:9803   */\n      tag_72\n      jump\t// in\n    tag_217:\n        /* \"#utility.yul\":9868:9886   */\n      0xffffffffffffffff\n        /* \"#utility.yul\":9860:9866   */\n      dup2\n        /* \"#utility.yul\":9857:9887   */\n      gt\n        /* \"#utility.yul\":9854:9910   */\n      iszero\n      tag_218\n      jumpi\n        /* \"#utility.yul\":9890:9908   */\n      tag_219\n      tag_80\n      jump\t// in\n    tag_219:\n        /* \"#utility.yul\":9854:9910   */\n    tag_218:\n        /* \"#utility.yul\":9934:9972   */\n      tag_220\n        /* \"#utility.yul\":9966:9970   */\n      dup3\n        /* \"#utility.yul\":9960:9971   */\n      sload\n        /* \"#utility.yul\":9934:9972   */\n      tag_40\n      jump\t// in\n    tag_220:\n        /* \"#utility.yul\":10019:10086   */\n      tag_221\n        /* \"#utility.yul\":10079:10085   */\n      dup3\n        /* \"#utility.yul\":10071:10077   */\n      dup3\n        /* \"#utility.yul\":10065:10069   */\n      dup6\n        /* \"#utility.yul\":10019:10086   */\n      tag_100\n      jump\t// in\n    tag_221:\n        /* \"#utility.yul\":10113:10114   */\n      0x00\n        /* \"#utility.yul\":10137:10141   */\n      0x20\n        /* \"#utility.yul\":10124:10141   */\n      swap1\n      pop\n        /* \"#utility.yul\":10169:10171   */\n      0x1f\n        /* \"#utility.yul\":10161:10167   */\n      dup4\n        /* \"#utility.yul\":10158:10172   */\n      gt\n        /* \"#utility.yul\":10186:10187   */\n      0x01\n        /* \"#utility.yul\":10181:10799   */\n      dup2\n      eq\n      tag_223\n      jumpi\n        /* \"#utility.yul\":10843:10844   */\n      0x00\n        /* \"#utility.yul\":10860:10866   */\n      dup5\n        /* \"#utility.yul\":10857:10934   */\n      iszero\n      tag_224\n      jumpi\n        /* \"#utility.yul\":10909:10918   */\n      dup3\n        /* \"#utility.yul\":10904:10907   */\n      dup8\n        /* \"#utility.yul\":10900:10919   */\n      add\n        /* \"#utility.yul\":10894:10920   */\n      mload\n        /* \"#utility.yul\":10885:10920   */\n      swap1\n      pop\n        /* \"#utility.yul\":10857:10934   */\n    tag_224:\n        /* \"#utility.yul\":10960:11027   */\n      tag_225\n        /* \"#utility.yul\":11020:11026   */\n      dup6\n        /* \"#utility.yul\":11013:11018   */\n      dup3\n        /* \"#utility.yul\":10960:11027   */\n      tag_103\n      jump\t// in\n    tag_225:\n        /* \"#utility.yul\":10954:10958   */\n      dup7\n        /* \"#utility.yul\":10947:11028   */\n      sstore\n        /* \"#utility.yul\":10816:11038   */\n      pop\n        /* \"#utility.yul\":10151:11038   */\n      jump(tag_222)\n        /* \"#utility.yul\":10181:10799   */\n    tag_223:\n        /* \"#utility.yul\":10233:10237   */\n      0x1f\n        /* \"#utility.yul\":10229:10238   */\n      not\n        /* \"#utility.yul\":10221:10227   */\n      dup5\n        /* \"#utility.yul\":10217:10239   */\n      and\n        /* \"#utility.yul\":10267:10304   */\n      tag_226\n        /* \"#utility.yul\":10299:10303   */\n      dup7\n        /* \"#utility.yul\":10267:10304   */\n      tag_89\n      jump\t// in\n    tag_226:\n        /* \"#utility.yul\":10326:10327   */\n      0x00\n        /* \"#utility.yul\":10340:10548   */\n    tag_227:\n        /* \"#utility.yul\":10354:10361   */\n      dup3\n        /* \"#utility.yul\":10351:10352   */\n      dup2\n        /* \"#utility.yul\":10348:10362   */\n      lt\n        /* \"#utility.yul\":10340:10548   */\n      iszero\n      tag_229\n      jumpi\n        /* \"#utility.yul\":10433:10442   */\n      dup5\n        /* \"#utility.yul\":10428:10431   */\n      dup10\n        /* \"#utility.yul\":10424:10443   */\n      add\n        /* \"#utility.yul\":10418:10444   */\n      mload\n        /* \"#utility.yul\":10410:10416   */\n      dup3\n        /* \"#utility.yul\":10403:10445   */\n      sstore\n        /* \"#utility.yul\":10484:10485   */\n      0x01\n        /* \"#utility.yul\":10476:10482   */\n      dup3\n        /* \"#utility.yul\":10472:10486   */\n      add\n        /* \"#utility.yul\":10462:10486   */\n      swap2\n      pop\n        /* \"#utility.yul\":10531:10533   */\n      0x20\n        /* \"#utility.yul\":10520:10529   */\n      dup6\n        /* \"#utility.yul\":10516:10534   */\n      add\n        /* \"#utility.yul\":10503:10534   */\n      swap5\n      pop\n        /* \"#utility.yul\":10377:10381   */\n      0x20\n        /* \"#utility.yul\":10374:10375   */\n      dup2\n        /* \"#utility.yul\":10370:10382   */\n      add\n        /* \"#utility.yul\":10365:10382   */\n      swap1\n      pop\n        /* \"#utility.yul\":10340:10548   */\n      jump(tag_227)\n    tag_229:\n        /* \"#utility.yul\":10576:10582   */\n      dup7\n        /* \"#utility.yul\":10567:10574   */\n      dup4\n        /* \"#utility.yul\":10564:10583   */\n      lt\n        /* \"#utility.yul\":10561:10740   */\n      iszero\n      tag_230\n      jumpi\n        /* \"#utility.yul\":10634:10643   */\n      dup5\n        /* \"#utility.yul\":10629:10632   */\n      dup10\n        /* \"#utility.yul\":10625:10644   */\n      add\n        /* \"#utility.yul\":10619:10645   */\n      mload\n        /* \"#utility.yul\":10677:10725   */\n      tag_231\n        /* \"#utility.yul\":10719:10723   */\n      0x1f\n        /* \"#utility.yul\":10711:10717   */\n      dup10\n        /* \"#utility.yul\":10707:10724   */\n      and\n        /* \"#utility.yul\":10696:10705   */\n      dup3\n        /* \"#utility.yul\":10677:10725   */\n      tag_102\n      jump\t// in\n    tag_231:\n        /* \"#utility.yul\":10669:10675   */\n      dup4\n        /* \"#utility.yul\":10662:10726   */\n      sstore\n        /* \"#utility.yul\":10584:10740   */\n      pop\n        /* \"#utility.yul\":10561:10740   */\n    tag_230:\n        /* \"#utility.yul\":10786:10787   */\n      0x01\n        /* \"#utility.yul\":10782:10783   */\n      0x02\n        /* \"#utility.yul\":10774:10780   */\n      dup9\n        /* \"#utility.yul\":10770:10784   */\n      mul\n        /* \"#utility.yul\":10766:10788   */\n      add\n        /* \"#utility.yul\":10760:10764   */\n      dup9\n        /* \"#utility.yul\":10753:10789   */\n      sstore\n        /* \"#utility.yul\":10188:10799   */\n      pop\n      pop\n      pop\n        /* \"#utility.yul\":10151:11038   */\n    tag_222:\n      pop\n        /* \"#utility.yul\":9741:11044   */\n      pop\n      pop\n      pop\n        /* \"#utility.yul\":9649:11044   */\n      pop\n      pop\n      jump\t// out\n\n    auxdata: 0xa2646970667358221220513ac000ff672c08da5e4dc0eafe56ee8599015a340c89c976308ff841e4d97d64736f6c634300081a0033\n}\n",
				"bytecode": {
					"linkReferences": {},
					"object": "608060405260585f556040518060400160405280600781526020016040518060400160405280600581526020017f5448414c4100000000000000000000000000000000000000000000000000000081525081525060015f820151815f0155602082015181600101908161007291906102c0565b505050348015610080575f80fd5b5061038f565b5f81519050919050565b7f4e487b71000000000000000000000000000000000000000000000000000000005f52604160045260245ffd5b7f4e487b71000000000000000000000000000000000000000000000000000000005f52602260045260245ffd5b5f600282049050600182168061010157607f821691505b602082108103610114576101136100bd565b5b50919050565b5f819050815f5260205f209050919050565b5f6020601f8301049050919050565b5f82821b905092915050565b5f600883026101767fffffffffffffffffffffffffffffffffffffffffffffffffffffffffffffffff8261013b565b610180868361013b565b95508019841693508086168417925050509392505050565b5f819050919050565b5f819050919050565b5f6101c46101bf6101ba84610198565b6101a1565b610198565b9050919050565b5f819050919050565b6101dd836101aa565b6101f16101e9826101cb565b848454610147565b825550505050565b5f90565b6102056101f9565b6102108184846101d4565b505050565b5b81811015610233576102285f826101fd565b600181019050610216565b5050565b601f821115610278576102498161011a565b6102528461012c565b81016020851015610261578190505b61027561026d8561012c565b830182610215565b50505b505050565b5f82821c905092915050565b5f6102985f198460080261027d565b1980831691505092915050565b5f6102b08383610289565b9150826002028217905092915050565b6102c982610086565b67ffffffffffffffff8111156102e2576102e1610090565b5b6102ec82546100ea565b6102f7828285610237565b5f60209050601f831160018114610328575f8415610316578287015190505b61032085826102a5565b865550610387565b601f1984166103368661011a565b5f5b8281101561035d57848901518255600182019150602085019450602081019050610338565b8683101561037a5784890151610376601f891682610289565b8355505b6001600288020188555050505b505050505050565b610a368061039c5f395ff3fe608060405234801561000f575f80fd5b506004361061007b575f3560e01c80636057361d116100595780636057361d146100eb5780637911ff881461010757806389d27da214610138578063affc277b146101545761007b565b8063092770dc1461007f57806319908de0146100af5780632e64cec1146100cd575b5f80fd5b61009960048036038101906100949190610440565b610173565b6040516100a691906104db565b60405180910390f35b6100b761020e565b6040516100c4919061050a565b60405180910390f35b6100d5610213565b6040516100e2919061050a565b60405180910390f35b61010560048036038101906101009190610440565b61021b565b005b610121600480360381019061011c9190610440565b610230565b60405161012f929190610523565b60405180910390f35b610152600480360381019061014d919061067d565b6102e5565b005b61015c610365565b60405161016a929190610523565b60405180910390f35b6004602052805f5260405f205f91509050805461018f90610704565b80601f01602080910402602001604051908101604052809291908181526020018280546101bb90610704565b80156102065780601f106101dd57610100808354040283529160200191610206565b820191905f5260205f20905b8154815290600101906020018083116101e957829003601f168201915b505050505081565b5f5481565b5f8054905090565b6005816102289190610761565b5f8190555050565b6003818154811061023f575f80fd5b905f5260205f2090600202015f91509050805f01549080600101805461026490610704565b80601f016020809104026020016040519081016040528092919081815260200182805461029090610704565b80156102db5780601f106102b2576101008083540402835291602001916102db565b820191905f5260205f20905b8154815290600101906020018083116102be57829003601f168201915b5050505050905082565b6003604051806040016040528084815260200183815250908060018154018082558091505060019003905f5260205f2090600202015f909190919091505f820151815f0155602082015181600101908161033f9190610931565b5050508060045f8481526020019081526020015f2090816103609190610931565b505050565b6001805f01549080600101805461037b90610704565b80601f01602080910402602001604051908101604052809291908181526020018280546103a790610704565b80156103f25780601f106103c9576101008083540402835291602001916103f2565b820191905f5260205f20905b8154815290600101906020018083116103d557829003601f168201915b5050505050905082565b5f604051905090565b5f80fd5b5f80fd5b5f819050919050565b61041f8161040d565b8114610429575f80fd5b50565b5f8135905061043a81610416565b92915050565b5f6020828403121561045557610454610405565b5b5f6104628482850161042c565b91505092915050565b5f81519050919050565b5f82825260208201905092915050565b8281835e5f83830152505050565b5f601f19601f8301169050919050565b5f6104ad8261046b565b6104b78185610475565b93506104c7818560208601610485565b6104d081610493565b840191505092915050565b5f6020820190508181035f8301526104f381846104a3565b905092915050565b6105048161040d565b82525050565b5f60208201905061051d5f8301846104fb565b92915050565b5f6040820190506105365f8301856104fb565b818103602083015261054881846104a3565b90509392505050565b5f80fd5b5f80fd5b7f4e487b71000000000000000000000000000000000000000000000000000000005f52604160045260245ffd5b61058f82610493565b810181811067ffffffffffffffff821117156105ae576105ad610559565b5b80604052505050565b5f6105c06103fc565b90506105cc8282610586565b919050565b5f67ffffffffffffffff8211156105eb576105ea610559565b5b6105f482610493565b9050602081019050919050565b828183375f83830152505050565b5f61062161061c846105d1565b6105b7565b90508281526020810184848401111561063d5761063c610555565b5b610648848285610601565b509392505050565b5f82601f83011261066457610663610551565b5b813561067484826020860161060f565b91505092915050565b5f806040838503121561069357610692610405565b5b5f6106a08582860161042c565b925050602083013567ffffffffffffffff8111156106c1576106c0610409565b5b6106cd85828601610650565b9150509250929050565b7f4e487b71000000000000000000000000000000000000000000000000000000005f52602260045260245ffd5b5f600282049050600182168061071b57607f821691505b60208210810361072e5761072d6106d7565b5b50919050565b7f4e487b71000000000000000000000000000000000000000000000000000000005f52601160045260245ffd5b5f61076b8261040d565b91506107768361040d565b925082820190508082111561078e5761078d610734565b5b92915050565b5f819050815f5260205f209050919050565b5f6020601f8301049050919050565b5f82821b905092915050565b5f600883026107f07fffffffffffffffffffffffffffffffffffffffffffffffffffffffffffffffff826107b5565b6107fa86836107b5565b95508019841693508086168417925050509392505050565b5f819050919050565b5f61083561083061082b8461040d565b610812565b61040d565b9050919050565b5f819050919050565b61084e8361081b565b61086261085a8261083c565b8484546107c1565b825550505050565b5f90565b61087661086a565b610881818484610845565b505050565b5b818110156108a4576108995f8261086e565b600181019050610887565b5050565b601f8211156108e9576108ba81610794565b6108c3846107a6565b810160208510156108d2578190505b6108e66108de856107a6565b830182610886565b50505b505050565b5f82821c905092915050565b5f6109095f19846008026108ee565b1980831691505092915050565b5f61092183836108fa565b9150826002028217905092915050565b61093a8261046b565b67ffffffffffffffff81111561095357610952610559565b5b61095d8254610704565b6109688282856108a8565b5f60209050601f831160018114610999575f8415610987578287015190505b6109918582610916565b8655506109f8565b601f1984166109a786610794565b5f5b828110156109ce578489015182556001820191506020850194506020810190506109a9565b868310156109eb57848901516109e7601f8916826108fa565b8355505b6001600288020188555050505b50505050505056fea2646970667358221220513ac000ff672c08da5e4dc0eafe56ee8599015a340c89c976308ff841e4d97d64736f6c634300081a0033",
					"opcodes": "PUSH1 0x80 PUSH1 0x40 MSTORE PUSH1 0x58 PUSH0 SSTORE PUSH1 0x40 MLOAD DUP1 PUSH1 0x40 ADD PUSH1 0x40 MSTORE DUP1 PUSH1 0x7 DUP2 MSTORE PUSH1 0x20 ADD PUSH1 0x40 MLOAD DUP1 PUSH1 0x40 ADD PUSH1 0x40 MSTORE DUP1 PUSH1 0x5 DUP2 MSTORE PUSH1 0x20 ADD PUSH32 0x5448414C41000000000000000000000000000000000000000000000000000000 DUP2 MSTORE POP DUP2 MSTORE POP PUSH1 0x1 PUSH0 DUP3 ADD MLOAD DUP2 PUSH0 ADD SSTORE PUSH1 0x20 DUP3 ADD MLOAD DUP2 PUSH1 0x1 ADD SWAP1 DUP2 PUSH2 0x72 SWAP2 SWAP1 PUSH2 0x2C0 JUMP JUMPDEST POP POP POP CALLVALUE DUP1 ISZERO PUSH2 0x80 JUMPI PUSH0 DUP1 REVERT JUMPDEST POP PUSH2 0x38F JUMP JUMPDEST PUSH0 DUP2 MLOAD SWAP1 POP SWAP2 SWAP1 POP JUMP JUMPDEST PUSH32 0x4E487B7100000000000000000000000000000000000000000000000000000000 PUSH0 MSTORE PUSH1 0x41 PUSH1 0x4 MSTORE PUSH1 0x24 PUSH0 REVERT JUMPDEST PUSH32 0x4E487B7100000000000000000000000000000000000000000000000000000000 PUSH0 MSTORE PUSH1 0x22 PUSH1 0x4 MSTORE PUSH1 0x24 PUSH0 REVERT JUMPDEST PUSH0 PUSH1 0x2 DUP3 DIV SWAP1 POP PUSH1 0x1 DUP3 AND DUP1 PUSH2 0x101 JUMPI PUSH1 0x7F DUP3 AND SWAP2 POP JUMPDEST PUSH1 0x20 DUP3 LT DUP2 SUB PUSH2 0x114 JUMPI PUSH2 0x113 PUSH2 0xBD JUMP JUMPDEST JUMPDEST POP SWAP2 SWAP1 POP JUMP JUMPDEST PUSH0 DUP2 SWAP1 POP DUP2 PUSH0 MSTORE PUSH1 0x20 PUSH0 KECCAK256 SWAP1 POP SWAP2 SWAP1 POP JUMP JUMPDEST PUSH0 PUSH1 0x20 PUSH1 0x1F DUP4 ADD DIV SWAP1 POP SWAP2 SWAP1 POP JUMP JUMPDEST PUSH0 DUP3 DUP3 SHL SWAP1 POP SWAP3 SWAP2 POP POP JUMP JUMPDEST PUSH0 PUSH1 0x8 DUP4 MUL PUSH2 0x176 PUSH32 0xFFFFFFFFFFFFFFFFFFFFFFFFFFFFFFFFFFFFFFFFFFFFFFFFFFFFFFFFFFFFFFFF DUP3 PUSH2 0x13B JUMP JUMPDEST PUSH2 0x180 DUP7 DUP4 PUSH2 0x13B JUMP JUMPDEST SWAP6 POP DUP1 NOT DUP5 AND SWAP4 POP DUP1 DUP7 AND DUP5 OR SWAP3 POP POP POP SWAP4 SWAP3 POP POP POP JUMP JUMPDEST PUSH0 DUP2 SWAP1 POP SWAP2 SWAP1 POP JUMP JUMPDEST PUSH0 DUP2 SWAP1 POP SWAP2 SWAP1 POP JUMP JUMPDEST PUSH0 PUSH2 0x1C4 PUSH2 0x1BF PUSH2 0x1BA DUP5 PUSH2 0x198 JUMP JUMPDEST PUSH2 0x1A1 JUMP JUMPDEST PUSH2 0x198 JUMP JUMPDEST SWAP1 POP SWAP2 SWAP1 POP JUMP JUMPDEST PUSH0 DUP2 SWAP1 POP SWAP2 SWAP1 POP JUMP JUMPDEST PUSH2 0x1DD DUP4 PUSH2 0x1AA JUMP JUMPDEST PUSH2 0x1F1 PUSH2 0x1E9 DUP3 PUSH2 0x1CB JUMP JUMPDEST DUP5 DUP5 SLOAD PUSH2 0x147 JUMP JUMPDEST DUP3 SSTORE POP POP POP POP JUMP JUMPDEST PUSH0 SWAP1 JUMP JUMPDEST PUSH2 0x205 PUSH2 0x1F9 JUMP JUMPDEST PUSH2 0x210 DUP2 DUP5 DUP5 PUSH2 0x1D4 JUMP JUMPDEST POP POP POP JUMP JUMPDEST JUMPDEST DUP2 DUP2 LT ISZERO PUSH2 0x233 JUMPI PUSH2 0x228 PUSH0 DUP3 PUSH2 0x1FD JUMP JUMPDEST PUSH1 0x1 DUP2 ADD SWAP1 POP PUSH2 0x216 JUMP JUMPDEST POP POP JUMP JUMPDEST PUSH1 0x1F DUP3 GT ISZERO PUSH2 0x278 JUMPI PUSH2 0x249 DUP2 PUSH2 0x11A JUMP JUMPDEST PUSH2 0x252 DUP5 PUSH2 0x12C JUMP JUMPDEST DUP2 ADD PUSH1 0x20 DUP6 LT ISZERO PUSH2 0x261 JUMPI DUP2 SWAP1 POP JUMPDEST PUSH2 0x275 PUSH2 0x26D DUP6 PUSH2 0x12C JUMP JUMPDEST DUP4 ADD DUP3 PUSH2 0x215 JUMP JUMPDEST POP POP JUMPDEST POP POP POP JUMP JUMPDEST PUSH0 DUP3 DUP3 SHR SWAP1 POP SWAP3 SWAP2 POP POP JUMP JUMPDEST PUSH0 PUSH2 0x298 PUSH0 NOT DUP5 PUSH1 0x8 MUL PUSH2 0x27D JUMP JUMPDEST NOT DUP1 DUP4 AND SWAP2 POP POP SWAP3 SWAP2 POP POP JUMP JUMPDEST PUSH0 PUSH2 0x2B0 DUP4 DUP4 PUSH2 0x289 JUMP JUMPDEST SWAP2 POP DUP3 PUSH1 0x2 MUL DUP3 OR SWAP1 POP SWAP3 SWAP2 POP POP JUMP JUMPDEST PUSH2 0x2C9 DUP3 PUSH2 0x86 JUMP JUMPDEST PUSH8 0xFFFFFFFFFFFFFFFF DUP2 GT ISZERO PUSH2 0x2E2 JUMPI PUSH2 0x2E1 PUSH2 0x90 JUMP JUMPDEST JUMPDEST PUSH2 0x2EC DUP3 SLOAD PUSH2 0xEA JUMP JUMPDEST PUSH2 0x2F7 DUP3 DUP3 DUP6 PUSH2 0x237 JUMP JUMPDEST PUSH0 PUSH1 0x20 SWAP1 POP PUSH1 0x1F DUP4 GT PUSH1 0x1 DUP2 EQ PUSH2 0x328 JUMPI PUSH0 DUP5 ISZERO PUSH2 0x316 JUMPI DUP3 DUP8 ADD MLOAD SWAP1 POP JUMPDEST PUSH2 0x320 DUP6 DUP3 PUSH2 0x2A5 JUMP JUMPDEST DUP7 SSTORE POP PUSH2 0x387 JUMP JUMPDEST PUSH1 0x1F NOT DUP5 AND PUSH2 0x336 DUP7 PUSH2 0x11A JUMP JUMPDEST PUSH0 JUMPDEST DUP3 DUP2 LT ISZERO PUSH2 0x35D JUMPI DUP5 DUP10 ADD MLOAD DUP3 SSTORE PUSH1 0x1 DUP3 ADD SWAP2 POP PUSH1 0x20 DUP6 ADD SWAP5 POP PUSH1 0x20 DUP2 ADD SWAP1 POP PUSH2 0x338 JUMP JUMPDEST DUP7 DUP4 LT ISZERO PUSH2 0x37A JUMPI DUP5 DUP10 ADD MLOAD PUSH2 0x376 PUSH1 0x1F DUP10 AND DUP3 PUSH2 0x289 JUMP JUMPDEST DUP4 SSTORE POP JUMPDEST PUSH1 0x1 PUSH1 0x2 DUP9 MUL ADD DUP9 SSTORE POP POP POP JUMPDEST POP POP POP POP POP POP JUMP JUMPDEST PUSH2 0xA36 DUP1 PUSH2 0x39C PUSH0 CODECOPY PUSH0 RETURN INVALID PUSH1 0x80 PUSH1 0x40 MSTORE CALLVALUE DUP1 ISZERO PUSH2 0xF JUMPI PUSH0 DUP1 REVERT JUMPDEST POP PUSH1 0x4 CALLDATASIZE LT PUSH2 0x7B JUMPI PUSH0 CALLDATALOAD PUSH1 0xE0 SHR DUP1 PUSH4 0x6057361D GT PUSH2 0x59 JUMPI DUP1 PUSH4 0x6057361D EQ PUSH2 0xEB JUMPI DUP1 PUSH4 0x7911FF88 EQ PUSH2 0x107 JUMPI DUP1 PUSH4 0x89D27DA2 EQ PUSH2 0x138 JUMPI DUP1 PUSH4 0xAFFC277B EQ PUSH2 0x154 JUMPI PUSH2 0x7B JUMP JUMPDEST DUP1 PUSH4 0x92770DC EQ PUSH2 0x7F JUMPI DUP1 PUSH4 0x19908DE0 EQ PUSH2 0xAF JUMPI DUP1 PUSH4 0x2E64CEC1 EQ PUSH2 0xCD JUMPI JUMPDEST PUSH0 DUP1 REVERT JUMPDEST PUSH2 0x99 PUSH1 0x4 DUP1 CALLDATASIZE SUB DUP2 ADD SWAP1 PUSH2 0x94 SWAP2 SWAP1 PUSH2 0x440 JUMP JUMPDEST PUSH2 0x173 JUMP JUMPDEST PUSH1 0x40 MLOAD PUSH2 0xA6 SWAP2 SWAP1 PUSH2 0x4DB JUMP JUMPDEST PUSH1 0x40 MLOAD DUP1 SWAP2 SUB SWAP1 RETURN JUMPDEST PUSH2 0xB7 PUSH2 0x20E JUMP JUMPDEST PUSH1 0x40 MLOAD PUSH2 0xC4 SWAP2 SWAP1 PUSH2 0x50A JUMP JUMPDEST PUSH1 0x40 MLOAD DUP1 SWAP2 SUB SWAP1 RETURN JUMPDEST PUSH2 0xD5 PUSH2 0x213 JUMP JUMPDEST PUSH1 0x40 MLOAD PUSH2 0xE2 SWAP2 SWAP1 PUSH2 0x50A JUMP JUMPDEST PUSH1 0x40 MLOAD DUP1 SWAP2 SUB SWAP1 RETURN JUMPDEST PUSH2 0x105 PUSH1 0x4 DUP1 CALLDATASIZE SUB DUP2 ADD SWAP1 PUSH2 0x100 SWAP2 SWAP1 PUSH2 0x440 JUMP JUMPDEST PUSH2 0x21B JUMP JUMPDEST STOP JUMPDEST PUSH2 0x121 PUSH1 0x4 DUP1 CALLDATASIZE SUB DUP2 ADD SWAP1 PUSH2 0x11C SWAP2 SWAP1 PUSH2 0x440 JUMP JUMPDEST PUSH2 0x230 JUMP JUMPDEST PUSH1 0x40 MLOAD PUSH2 0x12F SWAP3 SWAP2 SWAP1 PUSH2 0x523 JUMP JUMPDEST PUSH1 0x40 MLOAD DUP1 SWAP2 SUB SWAP1 RETURN JUMPDEST PUSH2 0x152 PUSH1 0x4 DUP1 CALLDATASIZE SUB DUP2 ADD SWAP1 PUSH2 0x14D SWAP2 SWAP1 PUSH2 0x67D JUMP JUMPDEST PUSH2 0x2E5 JUMP JUMPDEST STOP JUMPDEST PUSH2 0x15C PUSH2 0x365 JUMP JUMPDEST PUSH1 0x40 MLOAD PUSH2 0x16A SWAP3 SWAP2 SWAP1 PUSH2 0x523 JUMP JUMPDEST PUSH1 0x40 MLOAD DUP1 SWAP2 SUB SWAP1 RETURN JUMPDEST PUSH1 0x4 PUSH1 0x20 MSTORE DUP1 PUSH0 MSTORE PUSH1 0x40 PUSH0 KECCAK256 PUSH0 SWAP2 POP SWAP1 POP DUP1 SLOAD PUSH2 0x18F SWAP1 PUSH2 0x704 JUMP JUMPDEST DUP1 PUSH1 0x1F ADD PUSH1 0x20 DUP1 SWAP2 DIV MUL PUSH1 0x20 ADD PUSH1 0x40 MLOAD SWAP1 DUP2 ADD PUSH1 0x40 MSTORE DUP1 SWAP3 SWAP2 SWAP1 DUP2 DUP2 MSTORE PUSH1 0x20 ADD DUP3 DUP1 SLOAD PUSH2 0x1BB SWAP1 PUSH2 0x704 JUMP JUMPDEST DUP1 ISZERO PUSH2 0x206 JUMPI DUP1 PUSH1 0x1F LT PUSH2 0x1DD JUMPI PUSH2 0x100 DUP1 DUP4 SLOAD DIV MUL DUP4 MSTORE SWAP2 PUSH1 0x20 ADD SWAP2 PUSH2 0x206 JUMP JUMPDEST DUP3 ADD SWAP2 SWAP1 PUSH0 MSTORE PUSH1 0x20 PUSH0 KECCAK256 SWAP1 JUMPDEST DUP2 SLOAD DUP2 MSTORE SWAP1 PUSH1 0x1 ADD SWAP1 PUSH1 0x20 ADD DUP1 DUP4 GT PUSH2 0x1E9 JUMPI DUP3 SWAP1 SUB PUSH1 0x1F AND DUP3 ADD SWAP2 JUMPDEST POP POP POP POP POP DUP2 JUMP JUMPDEST PUSH0 SLOAD DUP2 JUMP JUMPDEST PUSH0 DUP1 SLOAD SWAP1 POP SWAP1 JUMP JUMPDEST PUSH1 0x5 DUP2 PUSH2 0x228 SWAP2 SWAP1 PUSH2 0x761 JUMP JUMPDEST PUSH0 DUP2 SWAP1 SSTORE POP POP JUMP JUMPDEST PUSH1 0x3 DUP2 DUP2 SLOAD DUP2 LT PUSH2 0x23F JUMPI PUSH0 DUP1 REVERT JUMPDEST SWAP1 PUSH0 MSTORE PUSH1 0x20 PUSH0 KECCAK256 SWAP1 PUSH1 0x2 MUL ADD PUSH0 SWAP2 POP SWAP1 POP DUP1 PUSH0 ADD SLOAD SWAP1 DUP1 PUSH1 0x1 ADD DUP1 SLOAD PUSH2 0x264 SWAP1 PUSH2 0x704 JUMP JUMPDEST DUP1 PUSH1 0x1F ADD PUSH1 0x20 DUP1 SWAP2 DIV MUL PUSH1 0x20 ADD PUSH1 0x40 MLOAD SWAP1 DUP2 ADD PUSH1 0x40 MSTORE DUP1 SWAP3 SWAP2 SWAP1 DUP2 DUP2 MSTORE PUSH1 0x20 ADD DUP3 DUP1 SLOAD PUSH2 0x290 SWAP1 PUSH2 0x704 JUMP JUMPDEST DUP1 ISZERO PUSH2 0x2DB JUMPI DUP1 PUSH1 0x1F LT PUSH2 0x2B2 JUMPI PUSH2 0x100 DUP1 DUP4 SLOAD DIV MUL DUP4 MSTORE SWAP2 PUSH1 0x20 ADD SWAP2 PUSH2 0x2DB JUMP JUMPDEST DUP3 ADD SWAP2 SWAP1 PUSH0 MSTORE PUSH1 0x20 PUSH0 KECCAK256 SWAP1 JUMPDEST DUP2 SLOAD DUP2 MSTORE SWAP1 PUSH1 0x1 ADD SWAP1 PUSH1 0x20 ADD DUP1 DUP4 GT PUSH2 0x2BE JUMPI DUP3 SWAP1 SUB PUSH1 0x1F AND DUP3 ADD SWAP2 JUMPDEST POP POP POP POP POP SWAP1 POP DUP3 JUMP JUMPDEST PUSH1 0x3 PUSH1 0x40 MLOAD DUP1 PUSH1 0x40 ADD PUSH1 0x40 MSTORE DUP1 DUP5 DUP2 MSTORE PUSH1 0x20 ADD DUP4 DUP2 MSTORE POP SWAP1 DUP1 PUSH1 0x1 DUP2 SLOAD ADD DUP1 DUP3 SSTORE DUP1 SWAP2 POP POP PUSH1 0x1 SWAP1 SUB SWAP1 PUSH0 MSTORE PUSH1 0x20 PUSH0 KECCAK256 SWAP1 PUSH1 0x2 MUL ADD PUSH0 SWAP1 SWAP2 SWAP1 SWAP2 SWAP1 SWAP2 POP PUSH0 DUP3 ADD MLOAD DUP2 PUSH0 ADD SSTORE PUSH1 0x20 DUP3 ADD MLOAD DUP2 PUSH1 0x1 ADD SWAP1 DUP2 PUSH2 0x33F SWAP2 SWAP1 PUSH2 0x931 JUMP JUMPDEST POP POP POP DUP1 PUSH1 0x4 PUSH0 DUP5 DUP2 MSTORE PUSH1 0x20 ADD SWAP1 DUP2 MSTORE PUSH1 0x20 ADD PUSH0 KECCAK256 SWAP1 DUP2 PUSH2 0x360 SWAP2 SWAP1 PUSH2 0x931 JUMP JUMPDEST POP POP POP JUMP JUMPDEST PUSH1 0x1 DUP1 PUSH0 ADD SLOAD SWAP1 DUP1 PUSH1 0x1 ADD DUP1 SLOAD PUSH2 0x37B SWAP1 PUSH2 0x704 JUMP JUMPDEST DUP1 PUSH1 0x1F ADD PUSH1 0x20 DUP1 SWAP2 DIV MUL PUSH1 0x20 ADD PUSH1 0x40 MLOAD SWAP1 DUP2 ADD PUSH1 0x40 MSTORE DUP1 SWAP3 SWAP2 SWAP1 DUP2 DUP2 MSTORE PUSH1 0x20 ADD DUP3 DUP1 SLOAD PUSH2 0x3A7 SWAP1 PUSH2 0x704 JUMP JUMPDEST DUP1 ISZERO PUSH2 0x3F2 JUMPI DUP1 PUSH1 0x1F LT PUSH2 0x3C9 JUMPI PUSH2 0x100 DUP1 DUP4 SLOAD DIV MUL DUP4 MSTORE SWAP2 PUSH1 0x20 ADD SWAP2 PUSH2 0x3F2 JUMP JUMPDEST DUP3 ADD SWAP2 SWAP1 PUSH0 MSTORE PUSH1 0x20 PUSH0 KECCAK256 SWAP1 JUMPDEST DUP2 SLOAD DUP2 MSTORE SWAP1 PUSH1 0x1 ADD SWAP1 PUSH1 0x20 ADD DUP1 DUP4 GT PUSH2 0x3D5 JUMPI DUP3 SWAP1 SUB PUSH1 0x1F AND DUP3 ADD SWAP2 JUMPDEST POP POP POP POP POP SWAP1 POP DUP3 JUMP JUMPDEST PUSH0 PUSH1 0x40 MLOAD SWAP1 POP SWAP1 JUMP JUMPDEST PUSH0 DUP1 REVERT JUMPDEST PUSH0 DUP1 REVERT JUMPDEST PUSH0 DUP2 SWAP1 POP SWAP2 SWAP1 POP JUMP JUMPDEST PUSH2 0x41F DUP2 PUSH2 0x40D JUMP JUMPDEST DUP2 EQ PUSH2 0x429 JUMPI PUSH0 DUP1 REVERT JUMPDEST POP JUMP JUMPDEST PUSH0 DUP2 CALLDATALOAD SWAP1 POP PUSH2 0x43A DUP2 PUSH2 0x416 JUMP JUMPDEST SWAP3 SWAP2 POP POP JUMP JUMPDEST PUSH0 PUSH1 0x20 DUP3 DUP5 SUB SLT ISZERO PUSH2 0x455 JUMPI PUSH2 0x454 PUSH2 0x405 JUMP JUMPDEST JUMPDEST PUSH0 PUSH2 0x462 DUP5 DUP3 DUP6 ADD PUSH2 0x42C JUMP JUMPDEST SWAP2 POP POP SWAP3 SWAP2 POP POP JUMP JUMPDEST PUSH0 DUP2 MLOAD SWAP1 POP SWAP2 SWAP1 POP JUMP JUMPDEST PUSH0 DUP3 DUP3 MSTORE PUSH1 0x20 DUP3 ADD SWAP1 POP SWAP3 SWAP2 POP POP JUMP JUMPDEST DUP3 DUP2 DUP4 MCOPY PUSH0 DUP4 DUP4 ADD MSTORE POP POP POP JUMP JUMPDEST PUSH0 PUSH1 0x1F NOT PUSH1 0x1F DUP4 ADD AND SWAP1 POP SWAP2 SWAP1 POP JUMP JUMPDEST PUSH0 PUSH2 0x4AD DUP3 PUSH2 0x46B JUMP JUMPDEST PUSH2 0x4B7 DUP2 DUP6 PUSH2 0x475 JUMP JUMPDEST SWAP4 POP PUSH2 0x4C7 DUP2 DUP6 PUSH1 0x20 DUP7 ADD PUSH2 0x485 JUMP JUMPDEST PUSH2 0x4D0 DUP2 PUSH2 0x493 JUMP JUMPDEST DUP5 ADD SWAP2 POP POP SWAP3 SWAP2 POP POP JUMP JUMPDEST PUSH0 PUSH1 0x20 DUP3 ADD SWAP1 POP DUP2 DUP2 SUB PUSH0 DUP4 ADD MSTORE PUSH2 0x4F3 DUP2 DUP5 PUSH2 0x4A3 JUMP JUMPDEST SWAP1 POP SWAP3 SWAP2 POP POP JUMP JUMPDEST PUSH2 0x504 DUP2 PUSH2 0x40D JUMP JUMPDEST DUP3 MSTORE POP POP JUMP JUMPDEST PUSH0 PUSH1 0x20 DUP3 ADD SWAP1 POP PUSH2 0x51D PUSH0 DUP4 ADD DUP5 PUSH2 0x4FB JUMP JUMPDEST SWAP3 SWAP2 POP POP JUMP JUMPDEST PUSH0 PUSH1 0x40 DUP3 ADD SWAP1 POP PUSH2 0x536 PUSH0 DUP4 ADD DUP6 PUSH2 0x4FB JUMP JUMPDEST DUP2 DUP2 SUB PUSH1 0x20 DUP4 ADD MSTORE PUSH2 0x548 DUP2 DUP5 PUSH2 0x4A3 JUMP JUMPDEST SWAP1 POP SWAP4 SWAP3 POP POP POP JUMP JUMPDEST PUSH0 DUP1 REVERT JUMPDEST PUSH0 DUP1 REVERT JUMPDEST PUSH32 0x4E487B7100000000000000000000000000000000000000000000000000000000 PUSH0 MSTORE PUSH1 0x41 PUSH1 0x4 MSTORE PUSH1 0x24 PUSH0 REVERT JUMPDEST PUSH2 0x58F DUP3 PUSH2 0x493 JUMP JUMPDEST DUP2 ADD DUP2 DUP2 LT PUSH8 0xFFFFFFFFFFFFFFFF DUP3 GT OR ISZERO PUSH2 0x5AE JUMPI PUSH2 0x5AD PUSH2 0x559 JUMP JUMPDEST JUMPDEST DUP1 PUSH1 0x40 MSTORE POP POP POP JUMP JUMPDEST PUSH0 PUSH2 0x5C0 PUSH2 0x3FC JUMP JUMPDEST SWAP1 POP PUSH2 0x5CC DUP3 DUP3 PUSH2 0x586 JUMP JUMPDEST SWAP2 SWAP1 POP JUMP JUMPDEST PUSH0 PUSH8 0xFFFFFFFFFFFFFFFF DUP3 GT ISZERO PUSH2 0x5EB JUMPI PUSH2 0x5EA PUSH2 0x559 JUMP JUMPDEST JUMPDEST PUSH2 0x5F4 DUP3 PUSH2 0x493 JUMP JUMPDEST SWAP1 POP PUSH1 0x20 DUP2 ADD SWAP1 POP SWAP2 SWAP1 POP JUMP JUMPDEST DUP3 DUP2 DUP4 CALLDATACOPY PUSH0 DUP4 DUP4 ADD MSTORE POP POP POP JUMP JUMPDEST PUSH0 PUSH2 0x621 PUSH2 0x61C DUP5 PUSH2 0x5D1 JUMP JUMPDEST PUSH2 0x5B7 JUMP JUMPDEST SWAP1 POP DUP3 DUP2 MSTORE PUSH1 0x20 DUP2 ADD DUP5 DUP5 DUP5 ADD GT ISZERO PUSH2 0x63D JUMPI PUSH2 0x63C PUSH2 0x555 JUMP JUMPDEST JUMPDEST PUSH2 0x648 DUP5 DUP3 DUP6 PUSH2 0x601 JUMP JUMPDEST POP SWAP4 SWAP3 POP POP POP JUMP JUMPDEST PUSH0 DUP3 PUSH1 0x1F DUP4 ADD SLT PUSH2 0x664 JUMPI PUSH2 0x663 PUSH2 0x551 JUMP JUMPDEST JUMPDEST DUP2 CALLDATALOAD PUSH2 0x674 DUP5 DUP3 PUSH1 0x20 DUP7 ADD PUSH2 0x60F JUMP JUMPDEST SWAP2 POP POP SWAP3 SWAP2 POP POP JUMP JUMPDEST PUSH0 DUP1 PUSH1 0x40 DUP4 DUP6 SUB SLT ISZERO PUSH2 0x693 JUMPI PUSH2 0x692 PUSH2 0x405 JUMP JUMPDEST JUMPDEST PUSH0 PUSH2 0x6A0 DUP6 DUP3 DUP7 ADD PUSH2 0x42C JUMP JUMPDEST SWAP3 POP POP PUSH1 0x20 DUP4 ADD CALLDATALOAD PUSH8 0xFFFFFFFFFFFFFFFF DUP2 GT ISZERO PUSH2 0x6C1 JUMPI PUSH2 0x6C0 PUSH2 0x409 JUMP JUMPDEST JUMPDEST PUSH2 0x6CD DUP6 DUP3 DUP7 ADD PUSH2 0x650 JUMP JUMPDEST SWAP2 POP POP SWAP3 POP SWAP3 SWAP1 POP JUMP JUMPDEST PUSH32 0x4E487B7100000000000000000000000000000000000000000000000000000000 PUSH0 MSTORE PUSH1 0x22 PUSH1 0x4 MSTORE PUSH1 0x24 PUSH0 REVERT JUMPDEST PUSH0 PUSH1 0x2 DUP3 DIV SWAP1 POP PUSH1 0x1 DUP3 AND DUP1 PUSH2 0x71B JUMPI PUSH1 0x7F DUP3 AND SWAP2 POP JUMPDEST PUSH1 0x20 DUP3 LT DUP2 SUB PUSH2 0x72E JUMPI PUSH2 0x72D PUSH2 0x6D7 JUMP JUMPDEST JUMPDEST POP SWAP2 SWAP1 POP JUMP JUMPDEST PUSH32 0x4E487B7100000000000000000000000000000000000000000000000000000000 PUSH0 MSTORE PUSH1 0x11 PUSH1 0x4 MSTORE PUSH1 0x24 PUSH0 REVERT JUMPDEST PUSH0 PUSH2 0x76B DUP3 PUSH2 0x40D JUMP JUMPDEST SWAP2 POP PUSH2 0x776 DUP4 PUSH2 0x40D JUMP JUMPDEST SWAP3 POP DUP3 DUP3 ADD SWAP1 POP DUP1 DUP3 GT ISZERO PUSH2 0x78E JUMPI PUSH2 0x78D PUSH2 0x734 JUMP JUMPDEST JUMPDEST SWAP3 SWAP2 POP POP JUMP JUMPDEST PUSH0 DUP2 SWAP1 POP DUP2 PUSH0 MSTORE PUSH1 0x20 PUSH0 KECCAK256 SWAP1 POP SWAP2 SWAP1 POP JUMP JUMPDEST PUSH0 PUSH1 0x20 PUSH1 0x1F DUP4 ADD DIV SWAP1 POP SWAP2 SWAP1 POP JUMP JUMPDEST PUSH0 DUP3 DUP3 SHL SWAP1 POP SWAP3 SWAP2 POP POP JUMP JUMPDEST PUSH0 PUSH1 0x8 DUP4 MUL PUSH2 0x7F0 PUSH32 0xFFFFFFFFFFFFFFFFFFFFFFFFFFFFFFFFFFFFFFFFFFFFFFFFFFFFFFFFFFFFFFFF DUP3 PUSH2 0x7B5 JUMP JUMPDEST PUSH2 0x7FA DUP7 DUP4 PUSH2 0x7B5 JUMP JUMPDEST SWAP6 POP DUP1 NOT DUP5 AND SWAP4 POP DUP1 DUP7 AND DUP5 OR SWAP3 POP POP POP SWAP4 SWAP3 POP POP POP JUMP JUMPDEST PUSH0 DUP2 SWAP1 POP SWAP2 SWAP1 POP JUMP JUMPDEST PUSH0 PUSH2 0x835 PUSH2 0x830 PUSH2 0x82B DUP5 PUSH2 0x40D JUMP JUMPDEST PUSH2 0x812 JUMP JUMPDEST PUSH2 0x40D JUMP JUMPDEST SWAP1 POP SWAP2 SWAP1 POP JUMP JUMPDEST PUSH0 DUP2 SWAP1 POP SWAP2 SWAP1 POP JUMP JUMPDEST PUSH2 0x84E DUP4 PUSH2 0x81B JUMP JUMPDEST PUSH2 0x862 PUSH2 0x85A DUP3 PUSH2 0x83C JUMP JUMPDEST DUP5 DUP5 SLOAD PUSH2 0x7C1 JUMP JUMPDEST DUP3 SSTORE POP POP POP POP JUMP JUMPDEST PUSH0 SWAP1 JUMP JUMPDEST PUSH2 0x876 PUSH2 0x86A JUMP JUMPDEST PUSH2 0x881 DUP2 DUP5 DUP5 PUSH2 0x845 JUMP JUMPDEST POP POP POP JUMP JUMPDEST JUMPDEST DUP2 DUP2 LT ISZERO PUSH2 0x8A4 JUMPI PUSH2 0x899 PUSH0 DUP3 PUSH2 0x86E JUMP JUMPDEST PUSH1 0x1 DUP2 ADD SWAP1 POP PUSH2 0x887 JUMP JUMPDEST POP POP JUMP JUMPDEST PUSH1 0x1F DUP3 GT ISZERO PUSH2 0x8E9 JUMPI PUSH2 0x8BA DUP2 PUSH2 0x794 JUMP JUMPDEST PUSH2 0x8C3 DUP5 PUSH2 0x7A6 JUMP JUMPDEST DUP2 ADD PUSH1 0x20 DUP6 LT ISZERO PUSH2 0x8D2 JUMPI DUP2 SWAP1 POP JUMPDEST PUSH2 0x8E6 PUSH2 0x8DE DUP6 PUSH2 0x7A6 JUMP JUMPDEST DUP4 ADD DUP3 PUSH2 0x886 JUMP JUMPDEST POP POP JUMPDEST POP POP POP JUMP JUMPDEST PUSH0 DUP3 DUP3 SHR SWAP1 POP SWAP3 SWAP2 POP POP JUMP JUMPDEST PUSH0 PUSH2 0x909 PUSH0 NOT DUP5 PUSH1 0x8 MUL PUSH2 0x8EE JUMP JUMPDEST NOT DUP1 DUP4 AND SWAP2 POP POP SWAP3 SWAP2 POP POP JUMP JUMPDEST PUSH0 PUSH2 0x921 DUP4 DUP4 PUSH2 0x8FA JUMP JUMPDEST SWAP2 POP DUP3 PUSH1 0x2 MUL DUP3 OR SWAP1 POP SWAP3 SWAP2 POP POP JUMP JUMPDEST PUSH2 0x93A DUP3 PUSH2 0x46B JUMP JUMPDEST PUSH8 0xFFFFFFFFFFFFFFFF DUP2 GT ISZERO PUSH2 0x953 JUMPI PUSH2 0x952 PUSH2 0x559 JUMP JUMPDEST JUMPDEST PUSH2 0x95D DUP3 SLOAD PUSH2 0x704 JUMP JUMPDEST PUSH2 0x968 DUP3 DUP3 DUP6 PUSH2 0x8A8 JUMP JUMPDEST PUSH0 PUSH1 0x20 SWAP1 POP PUSH1 0x1F DUP4 GT PUSH1 0x1 DUP2 EQ PUSH2 0x999 JUMPI PUSH0 DUP5 ISZERO PUSH2 0x987 JUMPI DUP3 DUP8 ADD MLOAD SWAP1 POP JUMPDEST PUSH2 0x991 DUP6 DUP3 PUSH2 0x916 JUMP JUMPDEST DUP7 SSTORE POP PUSH2 0x9F8 JUMP JUMPDEST PUSH1 0x1F NOT DUP5 AND PUSH2 0x9A7 DUP7 PUSH2 0x794 JUMP JUMPDEST PUSH0 JUMPDEST DUP3 DUP2 LT ISZERO PUSH2 0x9CE JUMPI DUP5 DUP10 ADD MLOAD DUP3 SSTORE PUSH1 0x1 DUP3 ADD SWAP2 POP PUSH1 0x20 DUP6 ADD SWAP5 POP PUSH1 0x20 DUP2 ADD SWAP1 POP PUSH2 0x9A9 JUMP JUMPDEST DUP7 DUP4 LT ISZERO PUSH2 0x9EB JUMPI DUP5 DUP10 ADD MLOAD PUSH2 0x9E7 PUSH1 0x1F DUP10 AND DUP3 PUSH2 0x8FA JUMP JUMPDEST DUP4 SSTORE POP JUMPDEST PUSH1 0x1 PUSH1 0x2 DUP9 MUL ADD DUP9 SSTORE POP POP POP JUMPDEST POP POP POP POP POP POP JUMP INVALID LOG2 PUSH5 0x6970667358 0x22 SLT KECCAK256 MLOAD GASPRICE 0xC0 STOP SELFDESTRUCT PUSH8 0x2C08DA5E4DC0EAFE JUMP 0xEE DUP6 SWAP10 ADD GAS CALLVALUE 0xC DUP10 0xC9 PUSH23 0x308FF841E4D97D64736F6C634300081A00330000000000 "
				},
				"gasEstimates": {
					"creation": {
						"codeDepositCost": "522800",
						"executionCost": "infinite",
						"totalCost": "infinite"
					},
					"external": {
						"Personel(uint256,string)": "infinite",
						"dict(uint256)": "infinite",
						"favnum()": "2447",
						"ngakootam(uint256)": "infinite",
						"nigga1()": "infinite",
						"retrieve()": "2477",
						"store(uint256)": "infinite"
					}
				},
				"methodIdentifiers": {
					"Personel(uint256,string)": "89d27da2",
					"dict(uint256)": "092770dc",
					"favnum()": "19908de0",
					"ngakootam(uint256)": "7911ff88",
					"nigga1()": "affc277b",
					"retrieve()": "2e64cec1",
					"store(uint256)": "6057361d"
				}
			},
			"storageLayout": {
				"storage": [
					{
						"astId": 24,
						"contract": "AddfiveStorage.sol:AddfiveStorage",
						"label": "favnum",
						"offset": 0,
						"slot": "0",
						"type": "t_uint256"
					},
					{
						"astId": 36,
						"contract": "AddfiveStorage.sol:AddfiveStorage",
						"label": "nigga1",
						"offset": 0,
						"slot": "1",
						"type": "t_struct(Person)29_storage"
					},
					{
						"astId": 40,
						"contract": "AddfiveStorage.sol:AddfiveStorage",
						"label": "ngakootam",
						"offset": 0,
						"slot": "3",
						"type": "t_array(t_struct(Person)29_storage)dyn_storage"
					},
					{
						"astId": 44,
						"contract": "AddfiveStorage.sol:AddfiveStorage",
						"label": "dict",
						"offset": 0,
						"slot": "4",
						"type": "t_mapping(t_uint256,t_string_storage)"
					}
				],
				"types": {
					"t_array(t_struct(Person)29_storage)dyn_storage": {
						"base": "t_struct(Person)29_storage",
						"encoding": "dynamic_array",
						"label": "struct SimpleStorage.Person[]",
						"numberOfBytes": "32"
					},
					"t_mapping(t_uint256,t_string_storage)": {
						"encoding": "mapping",
						"key": "t_uint256",
						"label": "mapping(uint256 => string)",
						"numberOfBytes": "32",
						"value": "t_string_storage"
					},
					"t_string_storage": {
						"encoding": "bytes",
						"label": "string",
						"numberOfBytes": "32"
					},
					"t_struct(Person)29_storage": {
						"encoding": "inplace",
						"label": "struct SimpleStorage.Person",
						"members": [
							{
								"astId": 26,
								"contract": "AddfiveStorage.sol:AddfiveStorage",
								"label": "favn",
								"offset": 0,
								"slot": "0",
								"type": "t_uint256"
							},
							{
								"astId": 28,
								"contract": "AddfiveStorage.sol:AddfiveStorage",
								"label": "name",
								"offset": 0,
								"slot": "1",
								"type": "t_string_storage"
							}
						],
						"numberOfBytes": "64"
					},
					"t_uint256": {
						"encoding": "inplace",
						"label": "uint256",
						"numberOfBytes": "32"
					}
				}
			},
			"userdoc": {
				"kind": "user",
				"methods": {},
				"version": 1
			}
		}
	}
}